{
  "_format": "hh-sol-artifact-1",
  "contractName": "FivePenguins",
  "sourceName": "contracts/FivePenguins.sol",
  "abi": [
    {
      "inputs": [
        {
          "internalType": "string",
          "name": "name",
          "type": "string"
        },
        {
          "internalType": "string",
          "name": "symbol",
          "type": "string"
        },
        {
          "internalType": "string",
          "name": "_uri",
          "type": "string"
        }
      ],
      "stateMutability": "nonpayable",
      "type": "constructor"
    },
    {
      "anonymous": false,
      "inputs": [
        {
          "indexed": true,
          "internalType": "address",
          "name": "owner",
          "type": "address"
        },
        {
          "indexed": true,
          "internalType": "address",
          "name": "approved",
          "type": "address"
        },
        {
          "indexed": true,
          "internalType": "uint256",
          "name": "tokenId",
          "type": "uint256"
        }
      ],
      "name": "Approval",
      "type": "event"
    },
    {
      "anonymous": false,
      "inputs": [
        {
          "indexed": true,
          "internalType": "address",
          "name": "owner",
          "type": "address"
        },
        {
          "indexed": true,
          "internalType": "address",
          "name": "operator",
          "type": "address"
        },
        {
          "indexed": false,
          "internalType": "bool",
          "name": "approved",
          "type": "bool"
        }
      ],
      "name": "ApprovalForAll",
      "type": "event"
    },
    {
      "anonymous": false,
      "inputs": [
        {
          "indexed": true,
          "internalType": "address",
          "name": "from",
          "type": "address"
        },
        {
          "indexed": true,
          "internalType": "address",
          "name": "to",
          "type": "address"
        },
        {
          "indexed": true,
          "internalType": "uint256",
          "name": "tokenId",
          "type": "uint256"
        }
      ],
      "name": "Transfer",
      "type": "event"
    },
    {
      "inputs": [],
      "name": "MAX_SUPPLY",
      "outputs": [
        {
          "internalType": "uint256",
          "name": "",
          "type": "uint256"
        }
      ],
      "stateMutability": "view",
      "type": "function"
    },
    {
      "inputs": [
        {
          "internalType": "address[]",
          "name": "addresses",
          "type": "address[]"
        }
      ],
      "name": "addAdmins",
      "outputs": [],
      "stateMutability": "nonpayable",
      "type": "function"
    },
    {
      "inputs": [
        {
          "internalType": "address[]",
          "name": "addresses",
          "type": "address[]"
        }
      ],
      "name": "addToWhitelist",
      "outputs": [],
      "stateMutability": "nonpayable",
      "type": "function"
    },
    {
      "inputs": [
        {
          "internalType": "address",
          "name": "",
          "type": "address"
        }
      ],
      "name": "admins",
      "outputs": [
        {
          "internalType": "bool",
          "name": "",
          "type": "bool"
        }
      ],
      "stateMutability": "view",
      "type": "function"
    },
    {
      "inputs": [
        {
          "internalType": "address",
          "name": "to",
          "type": "address"
        },
        {
          "internalType": "uint256",
          "name": "tokenId",
          "type": "uint256"
        }
      ],
      "name": "approve",
      "outputs": [],
      "stateMutability": "nonpayable",
      "type": "function"
    },
    {
      "inputs": [
        {
          "internalType": "address",
          "name": "owner",
          "type": "address"
        }
      ],
      "name": "balanceOf",
      "outputs": [
        {
          "internalType": "uint256",
          "name": "",
          "type": "uint256"
        }
      ],
      "stateMutability": "view",
      "type": "function"
    },
    {
      "inputs": [],
      "name": "baseURI",
      "outputs": [
        {
          "internalType": "string",
          "name": "",
          "type": "string"
        }
      ],
      "stateMutability": "view",
      "type": "function"
    },
    {
      "inputs": [
        {
          "internalType": "address",
          "name": "claimer",
          "type": "address"
        }
      ],
      "name": "canClaimFreeMint",
      "outputs": [
        {
          "internalType": "bool",
          "name": "",
          "type": "bool"
        }
      ],
      "stateMutability": "view",
      "type": "function"
    },
    {
      "inputs": [
        {
          "internalType": "address",
          "name": "",
          "type": "address"
        }
      ],
      "name": "freeMintClaimed",
      "outputs": [
        {
          "internalType": "bool",
          "name": "",
          "type": "bool"
        }
      ],
      "stateMutability": "view",
      "type": "function"
    },
    {
      "inputs": [
        {
          "internalType": "uint256",
          "name": "tokenId",
          "type": "uint256"
        }
      ],
      "name": "getApproved",
      "outputs": [
        {
          "internalType": "address",
          "name": "",
          "type": "address"
        }
      ],
      "stateMutability": "view",
      "type": "function"
    },
    {
      "inputs": [
        {
          "internalType": "address",
          "name": "owner",
          "type": "address"
        },
        {
          "internalType": "address",
          "name": "operator",
          "type": "address"
        }
      ],
      "name": "isApprovedForAll",
      "outputs": [
        {
          "internalType": "bool",
          "name": "",
          "type": "bool"
        }
      ],
      "stateMutability": "view",
      "type": "function"
    },
    {
      "inputs": [
        {
          "internalType": "uint256",
          "name": "amountToBuy",
          "type": "uint256"
        }
      ],
      "name": "mint",
      "outputs": [],
      "stateMutability": "payable",
      "type": "function"
    },
    {
      "inputs": [],
      "name": "name",
      "outputs": [
        {
          "internalType": "string",
          "name": "",
          "type": "string"
        }
      ],
      "stateMutability": "view",
      "type": "function"
    },
    {
      "inputs": [],
      "name": "owner",
      "outputs": [
        {
          "internalType": "address",
          "name": "",
          "type": "address"
        }
      ],
      "stateMutability": "view",
      "type": "function"
    },
    {
      "inputs": [
        {
          "internalType": "uint256",
          "name": "tokenId",
          "type": "uint256"
        }
      ],
      "name": "ownerOf",
      "outputs": [
        {
          "internalType": "address",
          "name": "",
          "type": "address"
        }
      ],
      "stateMutability": "view",
      "type": "function"
    },
    {
      "inputs": [],
      "name": "presaleEnabled",
      "outputs": [
        {
          "internalType": "bool",
          "name": "",
          "type": "bool"
        }
      ],
      "stateMutability": "view",
      "type": "function"
    },
    {
      "inputs": [],
      "name": "price",
      "outputs": [
        {
          "internalType": "uint256",
          "name": "",
          "type": "uint256"
        }
      ],
      "stateMutability": "view",
      "type": "function"
    },
    {
      "inputs": [
        {
          "internalType": "address[]",
          "name": "addresses",
          "type": "address[]"
        }
      ],
      "name": "removeAdmins",
      "outputs": [],
      "stateMutability": "nonpayable",
      "type": "function"
    },
    {
      "inputs": [
        {
          "internalType": "address[]",
          "name": "addresses",
          "type": "address[]"
        }
      ],
      "name": "removeFromWhitelist",
      "outputs": [],
      "stateMutability": "nonpayable",
      "type": "function"
    },
    {
      "inputs": [
        {
          "internalType": "address",
          "name": "from",
          "type": "address"
        },
        {
          "internalType": "address",
          "name": "to",
          "type": "address"
        },
        {
          "internalType": "uint256",
          "name": "tokenId",
          "type": "uint256"
        }
      ],
      "name": "safeTransferFrom",
      "outputs": [],
      "stateMutability": "nonpayable",
      "type": "function"
    },
    {
      "inputs": [
        {
          "internalType": "address",
          "name": "from",
          "type": "address"
        },
        {
          "internalType": "address",
          "name": "to",
          "type": "address"
        },
        {
          "internalType": "uint256",
          "name": "tokenId",
          "type": "uint256"
        },
        {
          "internalType": "bytes",
          "name": "_data",
          "type": "bytes"
        }
      ],
      "name": "safeTransferFrom",
      "outputs": [],
      "stateMutability": "nonpayable",
      "type": "function"
    },
    {
      "inputs": [],
      "name": "saleEnabled",
      "outputs": [
        {
          "internalType": "bool",
          "name": "",
          "type": "bool"
        }
      ],
      "stateMutability": "view",
      "type": "function"
    },
    {
      "inputs": [
        {
          "internalType": "bool",
          "name": "to",
          "type": "bool"
        }
      ],
      "name": "setAdminsLock",
      "outputs": [],
      "stateMutability": "nonpayable",
      "type": "function"
    },
    {
      "inputs": [
        {
          "internalType": "address",
          "name": "operator",
          "type": "address"
        },
        {
          "internalType": "bool",
          "name": "approved",
          "type": "bool"
        }
      ],
      "name": "setApprovalForAll",
      "outputs": [],
      "stateMutability": "nonpayable",
      "type": "function"
    },
    {
      "inputs": [
        {
          "internalType": "bool",
          "name": "to",
          "type": "bool"
        }
      ],
      "name": "setPresaleEnabled",
      "outputs": [],
      "stateMutability": "nonpayable",
      "type": "function"
    },
    {
      "inputs": [
        {
          "internalType": "uint256",
          "name": "to",
          "type": "uint256"
        }
      ],
      "name": "setPrice",
      "outputs": [],
      "stateMutability": "nonpayable",
      "type": "function"
    },
    {
      "inputs": [
        {
          "internalType": "bool",
          "name": "to",
          "type": "bool"
        }
      ],
      "name": "setSaleEnabled",
      "outputs": [],
      "stateMutability": "nonpayable",
      "type": "function"
    },
    {
      "inputs": [],
      "name": "soldOut",
      "outputs": [
        {
          "internalType": "bool",
          "name": "",
          "type": "bool"
        }
      ],
      "stateMutability": "view",
      "type": "function"
    },
    {
      "inputs": [
        {
          "internalType": "bytes4",
          "name": "interfaceId",
          "type": "bytes4"
        }
      ],
      "name": "supportsInterface",
      "outputs": [
        {
          "internalType": "bool",
          "name": "",
          "type": "bool"
        }
      ],
      "stateMutability": "view",
      "type": "function"
    },
    {
      "inputs": [],
      "name": "symbol",
      "outputs": [
        {
          "internalType": "string",
          "name": "",
          "type": "string"
        }
      ],
      "stateMutability": "view",
      "type": "function"
    },
    {
      "inputs": [
        {
          "internalType": "uint256",
          "name": "startAt",
          "type": "uint256"
        },
        {
          "internalType": "uint256",
          "name": "limit",
          "type": "uint256"
        }
      ],
      "name": "tokenOwners",
      "outputs": [
        {
          "internalType": "address[]",
          "name": "",
          "type": "address[]"
        },
        {
          "internalType": "uint256",
          "name": "",
          "type": "uint256"
        }
      ],
      "stateMutability": "view",
      "type": "function"
    },
    {
      "inputs": [
        {
          "internalType": "uint256",
          "name": "tokenId",
          "type": "uint256"
        }
      ],
      "name": "tokenURI",
      "outputs": [
        {
          "internalType": "string",
          "name": "",
          "type": "string"
        }
      ],
      "stateMutability": "view",
      "type": "function"
    },
    {
      "inputs": [],
      "name": "totalSupply",
      "outputs": [
        {
          "internalType": "uint256",
          "name": "",
          "type": "uint256"
        }
      ],
      "stateMutability": "view",
      "type": "function"
    },
    {
      "inputs": [
        {
          "internalType": "address",
          "name": "from",
          "type": "address"
        },
        {
          "internalType": "address",
          "name": "to",
          "type": "address"
        },
        {
          "internalType": "uint256",
          "name": "tokenId",
          "type": "uint256"
        }
      ],
      "name": "transferFrom",
      "outputs": [],
      "stateMutability": "nonpayable",
      "type": "function"
    },
    {
      "inputs": [
        {
          "internalType": "address",
          "name": "",
          "type": "address"
        }
      ],
      "name": "whitelist",
      "outputs": [
        {
          "internalType": "bool",
          "name": "",
          "type": "bool"
        }
      ],
      "stateMutability": "view",
      "type": "function"
    },
    {
      "inputs": [],
      "name": "withdraw",
      "outputs": [],
      "stateMutability": "nonpayable",
      "type": "function"
    }
  ],
  "bytecode": "0x60a060405266b1a2bc2ec500006007553480156200001c57600080fd5b5060405162005295380380620052958339818101604052810190620000429190620001fb565b828281600090805190602001906200005c929190620000d9565b50806001908051906020019062000075929190620000d9565b50505060016006819055503373ffffffffffffffffffffffffffffffffffffffff1660808173ffffffffffffffffffffffffffffffffffffffff1660601b8152505080600e9080519060200190620000cf929190620000d9565b505050506200040c565b828054620000e79062000331565b90600052602060002090601f0160209004810192826200010b576000855562000157565b82601f106200012657805160ff191683800117855562000157565b8280016001018555821562000157579182015b828111156200015657825182559160200191906001019062000139565b5b5090506200016691906200016a565b5090565b5b80821115620001855760008160009055506001016200016b565b5090565b6000620001a06200019a84620002c5565b6200029c565b905082815260208101848484011115620001b957600080fd5b620001c6848285620002fb565b509392505050565b600082601f830112620001e057600080fd5b8151620001f284826020860162000189565b91505092915050565b6000806000606084860312156200021157600080fd5b600084015167ffffffffffffffff8111156200022c57600080fd5b6200023a86828701620001ce565b935050602084015167ffffffffffffffff8111156200025857600080fd5b6200026686828701620001ce565b925050604084015167ffffffffffffffff8111156200028457600080fd5b6200029286828701620001ce565b9150509250925092565b6000620002a8620002bb565b9050620002b6828262000367565b919050565b6000604051905090565b600067ffffffffffffffff821115620002e357620002e2620003cc565b5b620002ee82620003fb565b9050602081019050919050565b60005b838110156200031b578082015181840152602081019050620002fe565b838111156200032b576000848401525b50505050565b600060028204905060018216806200034a57607f821691505b602082108114156200036157620003606200039d565b5b50919050565b6200037282620003fb565b810181811067ffffffffffffffff82111715620003945762000393620003cc565b5b80604052505050565b7f4e487b7100000000000000000000000000000000000000000000000000000000600052602260045260246000fd5b7f4e487b7100000000000000000000000000000000000000000000000000000000600052604160045260246000fd5b6000601f19601f8301169050919050565b60805160601c614e246200047160003960008181610c3601528181610dd101528181610f7a0152818161105c01528181611258015281816115910152818161174d015281816117710152818161190f01528181611fb201526122400152614e246000f3fe60806040526004361061020f5760003560e01c806371b9b64611610118578063a0712d68116100a0578063c10225b81161006f578063c10225b81461078d578063c70b1270146107b6578063c87b56dd146107f3578063e0ec7c3614610830578063e985e9c51461086d5761020f565b8063a0712d68146106f6578063a192783c14610712578063a22cb4651461073b578063b88d4fde146107645761020f565b806391b7f5ed116100e757806391b7f5ed1461061157806395d89b411461063a5780639b19251a146106655780639c54df64146106a2578063a035b1fe146106cb5761020f565b806371b9b646146105675780637f64978314610592578063893da6c9146105bb5780638da5cb5b146105e65761020f565b8063377e11e01161019b578063543e062c1161016a578063543e062c1461045b578063548db174146104995780636352211e146104c25780636c0360eb146104ff57806370a082311461052a5761020f565b8063377e11e0146103b55780633ccfd60b146103de57806342842e0e146103f5578063429b62e51461041e5761020f565b8063143b237f116101e2578063143b237f146102e257806318160ddd1461030d57806323b872dd146103385780633020a18e1461036157806332cb6b0c1461038a5761020f565b806301ffc9a71461021457806306fdde0314610251578063081812fc1461027c578063095ea7b3146102b9575b600080fd5b34801561022057600080fd5b5061023b600480360381019061023691906133f4565b6108aa565b6040516102489190613b61565b60405180910390f35b34801561025d57600080fd5b5061026661098c565b6040516102739190613b7c565b60405180910390f35b34801561028857600080fd5b506102a3600480360381019061029e9190613446565b610a1e565b6040516102b09190613aca565b60405180910390f35b3480156102c557600080fd5b506102e060048036038101906102db919061334a565b610aa3565b005b3480156102ee57600080fd5b506102f7610bbb565b6040516103049190613b61565b60405180910390f35b34801561031957600080fd5b50610322610bce565b60405161032f9190613fde565b60405180910390f35b34801561034457600080fd5b5061035f600480360381019061035a9190613244565b610bd4565b005b34801561036d57600080fd5b50610388600480360381019061038391906133cb565b610c34565b005b34801561039657600080fd5b5061039f610dc9565b6040516103ac9190613fde565b60405180910390f35b3480156103c157600080fd5b506103dc60048036038101906103d79190613386565b610dcf565b005b3480156103ea57600080fd5b506103f3610f78565b005b34801561040157600080fd5b5061041c60048036038101906104179190613244565b6110c3565b005b34801561042a57600080fd5b50610445600480360381019061044091906131df565b6110e3565b6040516104529190613b61565b60405180910390f35b34801561046757600080fd5b50610482600480360381019061047d919061346f565b611103565b604051610490929190613b31565b60405180910390f35b3480156104a557600080fd5b506104c060048036038101906104bb9190613386565b611256565b005b3480156104ce57600080fd5b506104e960048036038101906104e49190613446565b611403565b6040516104f69190613aca565b60405180910390f35b34801561050b57600080fd5b506105146114b5565b6040516105219190613b7c565b60405180910390f35b34801561053657600080fd5b50610551600480360381019061054c91906131df565b6114c4565b60405161055e9190613fde565b60405180910390f35b34801561057357600080fd5b5061057c61157c565b6040516105899190613b61565b60405180910390f35b34801561059e57600080fd5b506105b960048036038101906105b49190613386565b61158f565b005b3480156105c757600080fd5b506105d061173c565b6040516105dd9190613b61565b60405180910390f35b3480156105f257600080fd5b506105fb61174b565b6040516106089190613aca565b60405180910390f35b34801561061d57600080fd5b5061063860048036038101906106339190613446565b61176f565b005b34801561064657600080fd5b5061064f61185b565b60405161065c9190613b7c565b60405180910390f35b34801561067157600080fd5b5061068c600480360381019061068791906131df565b6118ed565b6040516106999190613b61565b60405180910390f35b3480156106ae57600080fd5b506106c960048036038101906106c49190613386565b61190d565b005b3480156106d757600080fd5b506106e0611ab6565b6040516106ed9190613fde565b60405180910390f35b610710600480360381019061070b9190613446565b611abc565b005b34801561071e57600080fd5b50610739600480360381019061073491906133cb565b611fb0565b005b34801561074757600080fd5b50610762600480360381019061075d919061330e565b61205b565b005b34801561077057600080fd5b5061078b60048036038101906107869190613293565b6121dc565b005b34801561079957600080fd5b506107b460048036038101906107af91906133cb565b61223e565b005b3480156107c257600080fd5b506107dd60048036038101906107d891906131df565b6123d4565b6040516107ea9190613b61565b60405180910390f35b3480156107ff57600080fd5b5061081a60048036038101906108159190613446565b612480565b6040516108279190613b7c565b60405180910390f35b34801561083c57600080fd5b50610857600480360381019061085291906131df565b612527565b6040516108649190613b61565b60405180910390f35b34801561087957600080fd5b50610894600480360381019061088f9190613208565b612547565b6040516108a19190613b61565b60405180910390f35b60007f80ac58cd000000000000000000000000000000000000000000000000000000007bffffffffffffffffffffffffffffffffffffffffffffffffffffffff1916827bffffffffffffffffffffffffffffffffffffffffffffffffffffffff1916148061097557507f5b5e139f000000000000000000000000000000000000000000000000000000007bffffffffffffffffffffffffffffffffffffffffffffffffffffffff1916827bffffffffffffffffffffffffffffffffffffffffffffffffffffffff1916145b806109855750610984826125db565b5b9050919050565b60606000805461099b906142c0565b80601f01602080910402602001604051908101604052809291908181526020018280546109c7906142c0565b8015610a145780601f106109e957610100808354040283529160200191610a14565b820191906000526020600020905b8154815290600101906020018083116109f757829003601f168201915b5050505050905090565b6000610a2982612645565b610a68576040517f08c379a0000000000000000000000000000000000000000000000000000000008152600401610a5f90613e3e565b60405180910390fd5b6004600083815260200190815260200160002060009054906101000a900473ffffffffffffffffffffffffffffffffffffffff169050919050565b6000610aae82611403565b90508073ffffffffffffffffffffffffffffffffffffffff168373ffffffffffffffffffffffffffffffffffffffff161415610b1f576040517f08c379a0000000000000000000000000000000000000000000000000000000008152600401610b1690613f3e565b60405180910390fd5b8073ffffffffffffffffffffffffffffffffffffffff16610b3e6126b1565b73ffffffffffffffffffffffffffffffffffffffff161480610b6d5750610b6c81610b676126b1565b612547565b5b610bac576040517f08c379a0000000000000000000000000000000000000000000000000000000008152600401610ba390613d9e565b60405180910390fd5b610bb683836126b9565b505050565b600860009054906101000a900460ff1681565b600d5481565b610be5610bdf6126b1565b82612772565b610c24576040517f08c379a0000000000000000000000000000000000000000000000000000000008152600401610c1b90613f5e565b60405180910390fd5b610c2f838383612850565b505050565b7f000000000000000000000000000000000000000000000000000000000000000073ffffffffffffffffffffffffffffffffffffffff163373ffffffffffffffffffffffffffffffffffffffff161480610cd75750600960003373ffffffffffffffffffffffffffffffffffffffff1673ffffffffffffffffffffffffffffffffffffffff16815260200190815260200160002060009054906101000a900460ff165b610d16576040517f08c379a0000000000000000000000000000000000000000000000000000000008152600401610d0d90613f9e565b60405180910390fd5b600860009054906101000a900460ff16610d65576040517f08c379a0000000000000000000000000000000000000000000000000000000008152600401610d5c90613f1e565b60405180910390fd5b610c35600d541415610dac576040517f08c379a0000000000000000000000000000000000000000000000000000000008152600401610da390613d3e565b60405180910390fd5b80600860016101000a81548160ff02191690831515021790555050565b610c3581565b7f000000000000000000000000000000000000000000000000000000000000000073ffffffffffffffffffffffffffffffffffffffff163373ffffffffffffffffffffffffffffffffffffffff1614610e5d576040517f08c379a0000000000000000000000000000000000000000000000000000000008152600401610e5490613c9e565b60405180910390fd5b600a60009054906101000a900460ff1615610ead576040517f08c379a0000000000000000000000000000000000000000000000000000000008152600401610ea490613bde565b60405180910390fd5b60005b82829050811015610f7357600060096000858585818110610efa577f4e487b7100000000000000000000000000000000000000000000000000000000600052603260045260246000fd5b9050602002016020810190610f0f91906131df565b73ffffffffffffffffffffffffffffffffffffffff1673ffffffffffffffffffffffffffffffffffffffff16815260200190815260200160002060006101000a81548160ff0219169083151502179055508080610f6b90614323565b915050610eb0565b505050565b7f000000000000000000000000000000000000000000000000000000000000000073ffffffffffffffffffffffffffffffffffffffff163373ffffffffffffffffffffffffffffffffffffffff16148061101b5750600960003373ffffffffffffffffffffffffffffffffffffffff1673ffffffffffffffffffffffffffffffffffffffff16815260200190815260200160002060009054906101000a900460ff165b61105a576040517f08c379a000000000000000000000000000000000000000000000000000000000815260040161105190613dfe565b60405180910390fd5b7f000000000000000000000000000000000000000000000000000000000000000073ffffffffffffffffffffffffffffffffffffffff166108fc479081150290604051600060405180830381858888f193505050501580156110c0573d6000803e3d6000fd5b50565b6110de838383604051806020016040528060008152506121dc565b505050565b60096020528060005260406000206000915054906101000a900460ff1681565b60606000808367ffffffffffffffff811115611148577f4e487b7100000000000000000000000000000000000000000000000000000000600052604160045260246000fd5b6040519080825280602002602001820160405280156111765781602001602082028036833780820191505090505b5090506000805b85811080156111995750600d54878261119691906140cb565b11155b15611246576111b281886111ad91906140cb565b611403565b8382815181106111eb577f4e487b7100000000000000000000000000000000000000000000000000000000600052603260045260246000fd5b602002602001019073ffffffffffffffffffffffffffffffffffffffff16908173ffffffffffffffffffffffffffffffffffffffff1681525050818061123090614323565b925050808061123e90614323565b91505061117d565b5081819350935050509250929050565b7f000000000000000000000000000000000000000000000000000000000000000073ffffffffffffffffffffffffffffffffffffffff163373ffffffffffffffffffffffffffffffffffffffff1614806112f95750600960003373ffffffffffffffffffffffffffffffffffffffff1673ffffffffffffffffffffffffffffffffffffffff16815260200190815260200160002060009054906101000a900460ff165b611338576040517f08c379a000000000000000000000000000000000000000000000000000000000815260040161132f90613d5e565b60405180910390fd5b60005b828290508110156113fe576000600b6000858585818110611385577f4e487b7100000000000000000000000000000000000000000000000000000000600052603260045260246000fd5b905060200201602081019061139a91906131df565b73ffffffffffffffffffffffffffffffffffffffff1673ffffffffffffffffffffffffffffffffffffffff16815260200190815260200160002060006101000a81548160ff02191690831515021790555080806113f690614323565b91505061133b565b505050565b6000806002600084815260200190815260200160002060009054906101000a900473ffffffffffffffffffffffffffffffffffffffff169050600073ffffffffffffffffffffffffffffffffffffffff168173ffffffffffffffffffffffffffffffffffffffff1614156114ac576040517f08c379a00000000000000000000000000000000000000000000000000000000081526004016114a390613dde565b60405180910390fd5b80915050919050565b60606114bf612aac565b905090565b60008073ffffffffffffffffffffffffffffffffffffffff168273ffffffffffffffffffffffffffffffffffffffff161415611535576040517f08c379a000000000000000000000000000000000000000000000000000000000815260040161152c90613dbe565b60405180910390fd5b600360008373ffffffffffffffffffffffffffffffffffffffff1673ffffffffffffffffffffffffffffffffffffffff168152602001908152602001600020549050919050565b600860019054906101000a900460ff1681565b7f000000000000000000000000000000000000000000000000000000000000000073ffffffffffffffffffffffffffffffffffffffff163373ffffffffffffffffffffffffffffffffffffffff1614806116325750600960003373ffffffffffffffffffffffffffffffffffffffff1673ffffffffffffffffffffffffffffffffffffffff16815260200190815260200160002060009054906101000a900460ff165b611671576040517f08c379a000000000000000000000000000000000000000000000000000000000815260040161166890613f7e565b60405180910390fd5b60005b82829050811015611737576001600b60008585858181106116be577f4e487b7100000000000000000000000000000000000000000000000000000000600052603260045260246000fd5b90506020020160208101906116d391906131df565b73ffffffffffffffffffffffffffffffffffffffff1673ffffffffffffffffffffffffffffffffffffffff16815260200190815260200160002060006101000a81548160ff021916908315150217905550808061172f90614323565b915050611674565b505050565b6000610c35600d541015905090565b7f000000000000000000000000000000000000000000000000000000000000000081565b7f000000000000000000000000000000000000000000000000000000000000000073ffffffffffffffffffffffffffffffffffffffff163373ffffffffffffffffffffffffffffffffffffffff1614806118125750600960003373ffffffffffffffffffffffffffffffffffffffff1673ffffffffffffffffffffffffffffffffffffffff16815260200190815260200160002060009054906101000a900460ff165b611851576040517f08c379a000000000000000000000000000000000000000000000000000000000815260040161184890613e5e565b60405180910390fd5b8060078190555050565b60606001805461186a906142c0565b80601f0160208091040260200160405190810160405280929190818152602001828054611896906142c0565b80156118e35780601f106118b8576101008083540402835291602001916118e3565b820191906000526020600020905b8154815290600101906020018083116118c657829003601f168201915b5050505050905090565b600b6020528060005260406000206000915054906101000a900460ff1681565b7f000000000000000000000000000000000000000000000000000000000000000073ffffffffffffffffffffffffffffffffffffffff163373ffffffffffffffffffffffffffffffffffffffff161461199b576040517f08c379a000000000000000000000000000000000000000000000000000000000815260040161199290613d1e565b60405180910390fd5b600a60009054906101000a900460ff16156119eb576040517f08c379a00000000000000000000000000000000000000000000000000000000081526004016119e290613bde565b60405180910390fd5b60005b82829050811015611ab157600160096000858585818110611a38577f4e487b7100000000000000000000000000000000000000000000000000000000600052603260045260246000fd5b9050602002016020810190611a4d91906131df565b73ffffffffffffffffffffffffffffffffffffffff1673ffffffffffffffffffffffffffffffffffffffff16815260200190815260200160002060006101000a81548160ff0219169083151502179055508080611aa990614323565b9150506119ee565b505050565b60075481565b60026006541415611b02576040517f08c379a0000000000000000000000000000000000000000000000000000000008152600401611af990613fbe565b60405180910390fd5b60026006819055506000600b60003373ffffffffffffffffffffffffffffffffffffffff1673ffffffffffffffffffffffffffffffffffffffff16815260200190815260200160002060009054906101000a900460ff1690506000818015611bb45750600c60003373ffffffffffffffffffffffffffffffffffffffff1673ffffffffffffffffffffffffffffffffffffffff16815260200190815260200160002060009054906101000a900460ff16155b9050610c35600d5410611bfc576040517f08c379a0000000000000000000000000000000000000000000000000000000008152600401611bf390613e7e565b60405180910390fd5b600860019054906101000a900460ff16158015611c255750600860009054906101000a900460ff165b15611c6f5781611c6a576040517f08c379a0000000000000000000000000000000000000000000000000000000008152600401611c6190613efe565b60405180910390fd5b611cbf565b600860019054906101000a900460ff16611cbe576040517f08c379a0000000000000000000000000000000000000000000000000000000008152600401611cb590613e9e565b60405180910390fd5b5b600083118015611cd05750600a8311155b611d0f576040517f08c379a0000000000000000000000000000000000000000000000000000000008152600401611d0690613c5e565b60405180910390fd5b8015611dcd57600183611d2291906141ac565b600754611d2f9190614152565b3414611d70576040517f08c379a0000000000000000000000000000000000000000000000000000000008152600401611d6790613c7e565b60405180910390fd5b6001600c60003373ffffffffffffffffffffffffffffffffffffffff1673ffffffffffffffffffffffffffffffffffffffff16815260200190815260200160002060006101000a81548160ff021916908315150217905550611e1d565b82600754611ddb9190614152565b3414611e1c576040517f08c379a0000000000000000000000000000000000000000000000000000000008152600401611e1390613c7e565b60405180910390fd5b5b60008390505b60008114611fa257611e4933600d60008154611e3e90614323565b919050819055612b3e565b610c35600d541415611f8f576000600860016101000a81548160ff0219169083151502179055506000600860006101000a81548160ff021916908315150217905550818015611eaf5750600060018286611ea391906141ac565b611ead91906141ac565b115b15611f24573373ffffffffffffffffffffffffffffffffffffffff166108fc60075460018488611edf91906141ac565b611ee991906141ac565b611ef39190614152565b9081150290604051600060405180830381858888f19350505050158015611f1e573d6000803e3d6000fd5b50611f8a565b81611f89573373ffffffffffffffffffffffffffffffffffffffff166108fc6007548387611f5291906141ac565b611f5c9190614152565b9081150290604051600060405180830381858888f19350505050158015611f87573d6000803e3d6000fd5b505b5b611fa2565b8080611f9a90614296565b915050611e23565b505050600160068190555050565b7f000000000000000000000000000000000000000000000000000000000000000073ffffffffffffffffffffffffffffffffffffffff163373ffffffffffffffffffffffffffffffffffffffff161461203e576040517f08c379a000000000000000000000000000000000000000000000000000000000815260040161203590613b9e565b60405180910390fd5b80600a60006101000a81548160ff02191690831515021790555050565b6120636126b1565b73ffffffffffffffffffffffffffffffffffffffff168273ffffffffffffffffffffffffffffffffffffffff1614156120d1576040517f08c379a00000000000000000000000000000000000000000000000000000000081526004016120c890613cde565b60405180910390fd5b80600560006120de6126b1565b73ffffffffffffffffffffffffffffffffffffffff1673ffffffffffffffffffffffffffffffffffffffff16815260200190815260200160002060008473ffffffffffffffffffffffffffffffffffffffff1673ffffffffffffffffffffffffffffffffffffffff16815260200190815260200160002060006101000a81548160ff0219169083151502179055508173ffffffffffffffffffffffffffffffffffffffff1661218b6126b1565b73ffffffffffffffffffffffffffffffffffffffff167f17307eab39ab6107e8899845ad3d59bd9653f200f220920489ca2b5937696c31836040516121d09190613b61565b60405180910390a35050565b6121ed6121e76126b1565b83612772565b61222c576040517f08c379a000000000000000000000000000000000000000000000000000000000815260040161222390613f5e565b60405180910390fd5b61223884848484612d0c565b50505050565b7f000000000000000000000000000000000000000000000000000000000000000073ffffffffffffffffffffffffffffffffffffffff163373ffffffffffffffffffffffffffffffffffffffff1614806122e15750600960003373ffffffffffffffffffffffffffffffffffffffff1673ffffffffffffffffffffffffffffffffffffffff16815260200190815260200160002060009054906101000a900460ff165b612320576040517f08c379a000000000000000000000000000000000000000000000000000000000815260040161231790613bbe565b60405180910390fd5b600860019054906101000a900460ff1615612370576040517f08c379a000000000000000000000000000000000000000000000000000000000815260040161236790613c1e565b60405180910390fd5b610c35600d5414156123b7576040517f08c379a00000000000000000000000000000000000000000000000000000000081526004016123ae90613d7e565b60405180910390fd5b80600860006101000a81548160ff02191690831515021790555050565b6000600b60008373ffffffffffffffffffffffffffffffffffffffff1673ffffffffffffffffffffffffffffffffffffffff16815260200190815260200160002060009054906101000a900460ff1680156124795750600c60008373ffffffffffffffffffffffffffffffffffffffff1673ffffffffffffffffffffffffffffffffffffffff16815260200190815260200160002060009054906101000a900460ff16155b9050919050565b606061248b82612645565b6124ca576040517f08c379a00000000000000000000000000000000000000000000000000000000081526004016124c190613ede565b60405180910390fd5b60006124d4612aac565b905060008151116124f4576040518060200160405280600081525061251f565b806124fe84612d68565b60405160200161250f929190613aa6565b6040516020818303038152906040525b915050919050565b600c6020528060005260406000206000915054906101000a900460ff1681565b6000600560008473ffffffffffffffffffffffffffffffffffffffff1673ffffffffffffffffffffffffffffffffffffffff16815260200190815260200160002060008373ffffffffffffffffffffffffffffffffffffffff1673ffffffffffffffffffffffffffffffffffffffff16815260200190815260200160002060009054906101000a900460ff16905092915050565b60007f01ffc9a7000000000000000000000000000000000000000000000000000000007bffffffffffffffffffffffffffffffffffffffffffffffffffffffff1916827bffffffffffffffffffffffffffffffffffffffffffffffffffffffff1916149050919050565b60008073ffffffffffffffffffffffffffffffffffffffff166002600084815260200190815260200160002060009054906101000a900473ffffffffffffffffffffffffffffffffffffffff1673ffffffffffffffffffffffffffffffffffffffff1614159050919050565b600033905090565b816004600083815260200190815260200160002060006101000a81548173ffffffffffffffffffffffffffffffffffffffff021916908373ffffffffffffffffffffffffffffffffffffffff160217905550808273ffffffffffffffffffffffffffffffffffffffff1661272c83611403565b73ffffffffffffffffffffffffffffffffffffffff167f8c5be1e5ebec7d5bd14f71427d1e84f3dd0314c0f7b2291e5b200ac8c7c3b92560405160405180910390a45050565b600061277d82612645565b6127bc576040517f08c379a00000000000000000000000000000000000000000000000000000000081526004016127b390613cfe565b60405180910390fd5b60006127c783611403565b90508073ffffffffffffffffffffffffffffffffffffffff168473ffffffffffffffffffffffffffffffffffffffff16148061283657508373ffffffffffffffffffffffffffffffffffffffff1661281e84610a1e565b73ffffffffffffffffffffffffffffffffffffffff16145b8061284757506128468185612547565b5b91505092915050565b8273ffffffffffffffffffffffffffffffffffffffff1661287082611403565b73ffffffffffffffffffffffffffffffffffffffff16146128c6576040517f08c379a00000000000000000000000000000000000000000000000000000000081526004016128bd90613ebe565b60405180910390fd5b600073ffffffffffffffffffffffffffffffffffffffff168273ffffffffffffffffffffffffffffffffffffffff161415612936576040517f08c379a000000000000000000000000000000000000000000000000000000000815260040161292d90613cbe565b60405180910390fd5b612941838383612f15565b61294c6000826126b9565b6001600360008573ffffffffffffffffffffffffffffffffffffffff1673ffffffffffffffffffffffffffffffffffffffff168152602001908152602001600020600082825461299c91906141ac565b925050819055506001600360008473ffffffffffffffffffffffffffffffffffffffff1673ffffffffffffffffffffffffffffffffffffffff16815260200190815260200160002060008282546129f391906140cb565b92505081905550816002600083815260200190815260200160002060006101000a81548173ffffffffffffffffffffffffffffffffffffffff021916908373ffffffffffffffffffffffffffffffffffffffff160217905550808273ffffffffffffffffffffffffffffffffffffffff168473ffffffffffffffffffffffffffffffffffffffff167fddf252ad1be2c89b69c2b068fc378daa952ba7f163c4a11628f55a4df523b3ef60405160405180910390a4505050565b6060600e8054612abb906142c0565b80601f0160208091040260200160405190810160405280929190818152602001828054612ae7906142c0565b8015612b345780601f10612b0957610100808354040283529160200191612b34565b820191906000526020600020905b815481529060010190602001808311612b1757829003601f168201915b5050505050905090565b600073ffffffffffffffffffffffffffffffffffffffff168273ffffffffffffffffffffffffffffffffffffffff161415612bae576040517f08c379a0000000000000000000000000000000000000000000000000000000008152600401612ba590613e1e565b60405180910390fd5b612bb781612645565b15612bf7576040517f08c379a0000000000000000000000000000000000000000000000000000000008152600401612bee90613c3e565b60405180910390fd5b612c0360008383612f15565b6001600360008473ffffffffffffffffffffffffffffffffffffffff1673ffffffffffffffffffffffffffffffffffffffff1681526020019081526020016000206000828254612c5391906140cb565b92505081905550816002600083815260200190815260200160002060006101000a81548173ffffffffffffffffffffffffffffffffffffffff021916908373ffffffffffffffffffffffffffffffffffffffff160217905550808273ffffffffffffffffffffffffffffffffffffffff16600073ffffffffffffffffffffffffffffffffffffffff167fddf252ad1be2c89b69c2b068fc378daa952ba7f163c4a11628f55a4df523b3ef60405160405180910390a45050565b612d17848484612850565b612d2384848484612f1a565b612d62576040517f08c379a0000000000000000000000000000000000000000000000000000000008152600401612d5990613bfe565b60405180910390fd5b50505050565b60606000821415612db0576040518060400160405280600181526020017f30000000000000000000000000000000000000000000000000000000000000008152509050612f10565b600082905060005b60008214612de2578080612dcb90614323565b915050600a82612ddb9190614121565b9150612db8565b60008167ffffffffffffffff811115612e24577f4e487b7100000000000000000000000000000000000000000000000000000000600052604160045260246000fd5b6040519080825280601f01601f191660200182016040528015612e565781602001600182028036833780820191505090505b5090505b60008514612f0957600182612e6f91906141ac565b9150600a85612e7e919061436c565b6030612e8a91906140cb565b60f81b818381518110612ec6577f4e487b7100000000000000000000000000000000000000000000000000000000600052603260045260246000fd5b60200101907effffffffffffffffffffffffffffffffffffffffffffffffffffffffffffff1916908160001a905350600a85612f029190614121565b9450612e5a565b8093505050505b919050565b505050565b6000612f3b8473ffffffffffffffffffffffffffffffffffffffff166130b1565b156130a4578373ffffffffffffffffffffffffffffffffffffffff1663150b7a02612f646126b1565b8786866040518563ffffffff1660e01b8152600401612f869493929190613ae5565b602060405180830381600087803b158015612fa057600080fd5b505af1925050508015612fd157506040513d601f19601f82011682018060405250810190612fce919061341d565b60015b613054573d8060008114613001576040519150601f19603f3d011682016040523d82523d6000602084013e613006565b606091505b5060008151141561304c576040517f08c379a000000000000000000000000000000000000000000000000000000000815260040161304390613bfe565b60405180910390fd5b805181602001fd5b63150b7a0260e01b7bffffffffffffffffffffffffffffffffffffffffffffffffffffffff1916817bffffffffffffffffffffffffffffffffffffffffffffffffffffffff1916149150506130a9565b600190505b949350505050565b600080823b905060008111915050919050565b60006130d76130d28461401e565b613ff9565b9050828152602081018484840111156130ef57600080fd5b6130fa848285614254565b509392505050565b60008135905061311181614d92565b92915050565b60008083601f84011261312957600080fd5b8235905067ffffffffffffffff81111561314257600080fd5b60208301915083602082028301111561315a57600080fd5b9250929050565b60008135905061317081614da9565b92915050565b60008135905061318581614dc0565b92915050565b60008151905061319a81614dc0565b92915050565b600082601f8301126131b157600080fd5b81356131c18482602086016130c4565b91505092915050565b6000813590506131d981614dd7565b92915050565b6000602082840312156131f157600080fd5b60006131ff84828501613102565b91505092915050565b6000806040838503121561321b57600080fd5b600061322985828601613102565b925050602061323a85828601613102565b9150509250929050565b60008060006060848603121561325957600080fd5b600061326786828701613102565b935050602061327886828701613102565b9250506040613289868287016131ca565b9150509250925092565b600080600080608085870312156132a957600080fd5b60006132b787828801613102565b94505060206132c887828801613102565b93505060406132d9878288016131ca565b925050606085013567ffffffffffffffff8111156132f657600080fd5b613302878288016131a0565b91505092959194509250565b6000806040838503121561332157600080fd5b600061332f85828601613102565b925050602061334085828601613161565b9150509250929050565b6000806040838503121561335d57600080fd5b600061336b85828601613102565b925050602061337c858286016131ca565b9150509250929050565b6000806020838503121561339957600080fd5b600083013567ffffffffffffffff8111156133b357600080fd5b6133bf85828601613117565b92509250509250929050565b6000602082840312156133dd57600080fd5b60006133eb84828501613161565b91505092915050565b60006020828403121561340657600080fd5b600061341484828501613176565b91505092915050565b60006020828403121561342f57600080fd5b600061343d8482850161318b565b91505092915050565b60006020828403121561345857600080fd5b6000613466848285016131ca565b91505092915050565b6000806040838503121561348257600080fd5b6000613490858286016131ca565b92505060206134a1858286016131ca565b9150509250929050565b60006134b783836134c3565b60208301905092915050565b6134cc816141e0565b82525050565b6134db816141e0565b82525050565b60006134ec8261405f565b6134f6818561408d565b93506135018361404f565b8060005b8381101561353257815161351988826134ab565b975061352483614080565b925050600181019050613505565b5085935050505092915050565b613548816141f2565b82525050565b60006135598261406a565b613563818561409e565b9350613573818560208601614263565b61357c81614459565b840191505092915050565b600061359282614075565b61359c81856140af565b93506135ac818560208601614263565b6135b581614459565b840191505092915050565b60006135cb82614075565b6135d581856140c0565b93506135e5818560208601614263565b80840191505092915050565b60006135fe6023836140af565b91506136098261446a565b604082019050919050565b6000613621602c836140af565b915061362c826144b9565b604082019050919050565b60006136446029836140af565b915061364f82614508565b604082019050919050565b60006136676032836140af565b915061367282614557565b604082019050919050565b600061368a6035836140af565b9150613695826145a6565b604082019050919050565b60006136ad601c836140af565b91506136b8826145f5565b602082019050919050565b60006136d0600e836140af565b91506136db8261461e565b602082019050919050565b60006136f36029836140af565b91506136fe82614647565b604082019050919050565b60006137166024836140af565b915061372182614696565b604082019050919050565b60006137396024836140af565b9150613744826146e5565b604082019050919050565b600061375c6019836140af565b915061376782614734565b602082019050919050565b600061377f602c836140af565b915061378a8261475d565b604082019050919050565b60006137a26021836140af565b91506137ad826147ac565b604082019050919050565b60006137c5602a836140af565b91506137d0826147fb565b604082019050919050565b60006137e8602d836140af565b91506137f38261484a565b604082019050919050565b600061380b602d836140af565b915061381682614899565b604082019050919050565b600061382e6038836140af565b9150613839826148e8565b604082019050919050565b6000613851602a836140af565b915061385c82614937565b604082019050919050565b60006138746029836140af565b915061387f82614986565b604082019050919050565b60006138976020836140af565b91506138a2826149d5565b602082019050919050565b60006138ba6020836140af565b91506138c5826149fe565b602082019050919050565b60006138dd602c836140af565b91506138e882614a27565b604082019050919050565b60006139006022836140af565b915061390b82614a76565b604082019050919050565b60006139236011836140af565b915061392e82614ac5565b602082019050919050565b60006139466010836140af565b915061395182614aee565b602082019050919050565b60006139696029836140af565b915061397482614b17565b604082019050919050565b600061398c602f836140af565b915061399782614b66565b604082019050919050565b60006139af6017836140af565b91506139ba82614bb5565b602082019050919050565b60006139d26034836140af565b91506139dd82614bde565b604082019050919050565b60006139f56021836140af565b9150613a0082614c2d565b604082019050919050565b6000613a186031836140af565b9150613a2382614c7c565b604082019050919050565b6000613a3b6028836140af565b9150613a4682614ccb565b604082019050919050565b6000613a5e6029836140af565b9150613a6982614d1a565b604082019050919050565b6000613a81601f836140af565b9150613a8c82614d69565b602082019050919050565b613aa08161424a565b82525050565b6000613ab282856135c0565b9150613abe82846135c0565b91508190509392505050565b6000602082019050613adf60008301846134d2565b92915050565b6000608082019050613afa60008301876134d2565b613b0760208301866134d2565b613b146040830185613a97565b8181036060830152613b26818461354e565b905095945050505050565b60006040820190508181036000830152613b4b81856134e1565b9050613b5a6020830184613a97565b9392505050565b6000602082019050613b76600083018461353f565b92915050565b60006020820190508181036000830152613b968184613587565b905092915050565b60006020820190508181036000830152613bb7816135f1565b9050919050565b60006020820190508181036000830152613bd781613614565b9050919050565b60006020820190508181036000830152613bf781613637565b9050919050565b60006020820190508181036000830152613c178161365a565b9050919050565b60006020820190508181036000830152613c378161367d565b9050919050565b60006020820190508181036000830152613c57816136a0565b9050919050565b60006020820190508181036000830152613c77816136c3565b9050919050565b60006020820190508181036000830152613c97816136e6565b9050919050565b60006020820190508181036000830152613cb781613709565b9050919050565b60006020820190508181036000830152613cd78161372c565b9050919050565b60006020820190508181036000830152613cf78161374f565b9050919050565b60006020820190508181036000830152613d1781613772565b9050919050565b60006020820190508181036000830152613d3781613795565b9050919050565b60006020820190508181036000830152613d57816137b8565b9050919050565b60006020820190508181036000830152613d77816137db565b9050919050565b60006020820190508181036000830152613d97816137fe565b9050919050565b60006020820190508181036000830152613db781613821565b9050919050565b60006020820190508181036000830152613dd781613844565b9050919050565b60006020820190508181036000830152613df781613867565b9050919050565b60006020820190508181036000830152613e178161388a565b9050919050565b60006020820190508181036000830152613e37816138ad565b9050919050565b60006020820190508181036000830152613e57816138d0565b9050919050565b60006020820190508181036000830152613e77816138f3565b9050919050565b60006020820190508181036000830152613e9781613916565b9050919050565b60006020820190508181036000830152613eb781613939565b9050919050565b60006020820190508181036000830152613ed78161395c565b9050919050565b60006020820190508181036000830152613ef78161397f565b9050919050565b60006020820190508181036000830152613f17816139a2565b9050919050565b60006020820190508181036000830152613f37816139c5565b9050919050565b60006020820190508181036000830152613f57816139e8565b9050919050565b60006020820190508181036000830152613f7781613a0b565b9050919050565b60006020820190508181036000830152613f9781613a2e565b9050919050565b60006020820190508181036000830152613fb781613a51565b9050919050565b60006020820190508181036000830152613fd781613a74565b9050919050565b6000602082019050613ff36000830184613a97565b92915050565b6000614003614014565b905061400f82826142f2565b919050565b6000604051905090565b600067ffffffffffffffff8211156140395761403861442a565b5b61404282614459565b9050602081019050919050565b6000819050602082019050919050565b600081519050919050565b600081519050919050565b600081519050919050565b6000602082019050919050565b600082825260208201905092915050565b600082825260208201905092915050565b600082825260208201905092915050565b600081905092915050565b60006140d68261424a565b91506140e18361424a565b9250827fffffffffffffffffffffffffffffffffffffffffffffffffffffffffffffffff038211156141165761411561439d565b5b828201905092915050565b600061412c8261424a565b91506141378361424a565b925082614147576141466143cc565b5b828204905092915050565b600061415d8261424a565b91506141688361424a565b9250817fffffffffffffffffffffffffffffffffffffffffffffffffffffffffffffffff04831182151516156141a1576141a061439d565b5b828202905092915050565b60006141b78261424a565b91506141c28361424a565b9250828210156141d5576141d461439d565b5b828203905092915050565b60006141eb8261422a565b9050919050565b60008115159050919050565b60007fffffffff0000000000000000000000000000000000000000000000000000000082169050919050565b600073ffffffffffffffffffffffffffffffffffffffff82169050919050565b6000819050919050565b82818337600083830152505050565b60005b83811015614281578082015181840152602081019050614266565b83811115614290576000848401525b50505050565b60006142a18261424a565b915060008214156142b5576142b461439d565b5b600182039050919050565b600060028204905060018216806142d857607f821691505b602082108114156142ec576142eb6143fb565b5b50919050565b6142fb82614459565b810181811067ffffffffffffffff8211171561431a5761431961442a565b5b80604052505050565b600061432e8261424a565b91507fffffffffffffffffffffffffffffffffffffffffffffffffffffffffffffffff8214156143615761436061439d565b5b600182019050919050565b60006143778261424a565b91506143828361424a565b925082614392576143916143cc565b5b828206905092915050565b7f4e487b7100000000000000000000000000000000000000000000000000000000600052601160045260246000fd5b7f4e487b7100000000000000000000000000000000000000000000000000000000600052601260045260246000fd5b7f4e487b7100000000000000000000000000000000000000000000000000000000600052602260045260246000fd5b7f4e487b7100000000000000000000000000000000000000000000000000000000600052604160045260246000fd5b6000601f19601f8301169050919050565b7f4f6e6c79206f776e65722063616e207365742061646d696e206c6f636b20737460008201527f6174650000000000000000000000000000000000000000000000000000000000602082015250565b7f4f6e6c79206f776e6572206f722061646d696e2063616e206368616e6765207060008201527f726573616c652073746174650000000000000000000000000000000000000000602082015250565b7f43616e6e6f74206368616e67652061646d696e6973747261746f72732077686960008201527f6c65206c6f636b65640000000000000000000000000000000000000000000000602082015250565b7f4552433732313a207472616e7366657220746f206e6f6e20455243373231526560008201527f63656976657220696d706c656d656e7465720000000000000000000000000000602082015250565b7f43616e6e6f74206368616e67652070726573616c65207374617465207768696c60008201527f65207075626c69632073616c65206973206c6976650000000000000000000000602082015250565b7f4552433732313a20746f6b656e20616c7265616479206d696e74656400000000600082015250565b7f496e76616c696420616d6f756e74000000000000000000000000000000000000600082015250565b7f496e76616c696420616d6f756e74206f6620657468657220666f7220616d6f7560008201527f6e7420746f206275790000000000000000000000000000000000000000000000602082015250565b7f4f6e6c79206f776e65722063616e2072656d6f76652061646d696e697374726160008201527f746f727300000000000000000000000000000000000000000000000000000000602082015250565b7f4552433732313a207472616e7366657220746f20746865207a65726f2061646460008201527f7265737300000000000000000000000000000000000000000000000000000000602082015250565b7f4552433732313a20617070726f766520746f2063616c6c657200000000000000600082015250565b7f4552433732313a206f70657261746f7220717565727920666f72206e6f6e657860008201527f697374656e7420746f6b656e0000000000000000000000000000000000000000602082015250565b7f4f6e6c79206f776e65722063616e206164642061646d696e6973747261746f7260008201527f7300000000000000000000000000000000000000000000000000000000000000602082015250565b7f43616e6e6f74206368616e67652073616c65207374617465206166746572207360008201527f656c6c696e67206f757400000000000000000000000000000000000000000000602082015250565b7f4f6e6c79206f776e6572206f722061646d696e2063616e2072656d6f7665206660008201527f726f6d2077686974656c69737400000000000000000000000000000000000000602082015250565b7f43616e6e6f74206368616e67652070726573616c65207374617465206166746560008201527f722073656c6c696e67206f757400000000000000000000000000000000000000602082015250565b7f4552433732313a20617070726f76652063616c6c6572206973206e6f74206f7760008201527f6e6572206e6f7220617070726f76656420666f7220616c6c0000000000000000602082015250565b7f4552433732313a2062616c616e636520717565727920666f7220746865207a6560008201527f726f206164647265737300000000000000000000000000000000000000000000602082015250565b7f4552433732313a206f776e657220717565727920666f72206e6f6e657869737460008201527f656e7420746f6b656e0000000000000000000000000000000000000000000000602082015250565b7f4f6e6c79206f776e6572206f722061646d696e2063616e207769746864726177600082015250565b7f4552433732313a206d696e7420746f20746865207a65726f2061646472657373600082015250565b7f4552433732313a20617070726f76656420717565727920666f72206e6f6e657860008201527f697374656e7420746f6b656e0000000000000000000000000000000000000000602082015250565b7f4f6e6c79206f776e6572206f722061646d696e2063616e20736574207072696360008201527f6573000000000000000000000000000000000000000000000000000000000000602082015250565b7f4e6f206d6f72652070656e6775696e7321000000000000000000000000000000600082015250565b7f4d696e74696e672064697361626c656400000000000000000000000000000000600082015250565b7f4552433732313a207472616e73666572206f6620746f6b656e2074686174206960008201527f73206e6f74206f776e0000000000000000000000000000000000000000000000602082015250565b7f4552433732314d657461646174613a2055524920717565727920666f72206e6f60008201527f6e6578697374656e7420746f6b656e0000000000000000000000000000000000602082015250565b7f41646472657373206e6f742077686974656c6973746564000000000000000000600082015250565b7f50726573616c65206d757374206265206c69766520696e206f7264657220746f60008201527f207475726e206f6e207075626c69632073616c65000000000000000000000000602082015250565b7f4552433732313a20617070726f76616c20746f2063757272656e74206f776e6560008201527f7200000000000000000000000000000000000000000000000000000000000000602082015250565b7f4552433732313a207472616e736665722063616c6c6572206973206e6f74206f60008201527f776e6572206e6f7220617070726f766564000000000000000000000000000000602082015250565b7f4f6e6c79206f776e6572206f722061646d696e2063616e2061646420746f207760008201527f686974656c697374000000000000000000000000000000000000000000000000602082015250565b7f4f6e6c79206f776e6572206f722061646d696e2063616e206368616e6765207360008201527f616c652073746174650000000000000000000000000000000000000000000000602082015250565b7f5265656e7472616e637947756172643a207265656e7472616e742063616c6c00600082015250565b614d9b816141e0565b8114614da657600080fd5b50565b614db2816141f2565b8114614dbd57600080fd5b50565b614dc9816141fe565b8114614dd457600080fd5b50565b614de08161424a565b8114614deb57600080fd5b5056fea2646970667358221220cb6ad315405e55ec4c24a00564e769b3837c8ec0858ab4084ef2033b41d18c4764736f6c63430008040033",
  "linkReferences": {},
  "deployedLinkReferences": {}
}