{
  "_format": "hh-sol-artifact-1",
  "contractName": "FivePenguins",
  "sourceName": "contracts/FivePenguins.sol",
  "abi": [
    {
      "inputs": [
        {
          "internalType": "string",
          "name": "name",
          "type": "string"
        },
        {
          "internalType": "string",
          "name": "symbol",
          "type": "string"
        },
        {
          "internalType": "string",
          "name": "_uri",
          "type": "string"
        }
      ],
      "stateMutability": "nonpayable",
      "type": "constructor"
    },
    {
      "anonymous": false,
      "inputs": [
        {
          "indexed": true,
          "internalType": "address",
          "name": "owner",
          "type": "address"
        },
        {
          "indexed": true,
          "internalType": "address",
          "name": "approved",
          "type": "address"
        },
        {
          "indexed": true,
          "internalType": "uint256",
          "name": "tokenId",
          "type": "uint256"
        }
      ],
      "name": "Approval",
      "type": "event"
    },
    {
      "anonymous": false,
      "inputs": [
        {
          "indexed": true,
          "internalType": "address",
          "name": "owner",
          "type": "address"
        },
        {
          "indexed": true,
          "internalType": "address",
          "name": "operator",
          "type": "address"
        },
        {
          "indexed": false,
          "internalType": "bool",
          "name": "approved",
          "type": "bool"
        }
      ],
      "name": "ApprovalForAll",
      "type": "event"
    },
    {
      "anonymous": false,
      "inputs": [
        {
          "indexed": true,
          "internalType": "address",
          "name": "from",
          "type": "address"
        },
        {
          "indexed": true,
          "internalType": "address",
          "name": "to",
          "type": "address"
        },
        {
          "indexed": true,
          "internalType": "uint256",
          "name": "tokenId",
          "type": "uint256"
        }
      ],
      "name": "Transfer",
      "type": "event"
    },
    {
      "inputs": [],
      "name": "MAX_SUPPLY",
      "outputs": [
        {
          "internalType": "uint256",
          "name": "",
          "type": "uint256"
        }
      ],
      "stateMutability": "view",
      "type": "function"
    },
    {
      "inputs": [
        {
          "internalType": "address[]",
          "name": "addresses",
          "type": "address[]"
        }
      ],
      "name": "addAdmins",
      "outputs": [],
      "stateMutability": "nonpayable",
      "type": "function"
    },
    {
      "inputs": [
        {
          "internalType": "address[]",
          "name": "addresses",
          "type": "address[]"
        }
      ],
      "name": "addToWhitelist",
      "outputs": [],
      "stateMutability": "nonpayable",
      "type": "function"
    },
    {
      "inputs": [
        {
          "internalType": "address",
          "name": "",
          "type": "address"
        }
      ],
      "name": "admins",
      "outputs": [
        {
          "internalType": "bool",
          "name": "",
          "type": "bool"
        }
      ],
      "stateMutability": "view",
      "type": "function"
    },
    {
      "inputs": [
        {
          "internalType": "address[]",
          "name": "addresses",
          "type": "address[]"
        }
      ],
      "name": "airdrop",
      "outputs": [],
      "stateMutability": "nonpayable",
      "type": "function"
    },
    {
      "inputs": [
        {
          "internalType": "address",
          "name": "to",
          "type": "address"
        },
        {
          "internalType": "uint256",
          "name": "tokenId",
          "type": "uint256"
        }
      ],
      "name": "approve",
      "outputs": [],
      "stateMutability": "nonpayable",
      "type": "function"
    },
    {
      "inputs": [
        {
          "internalType": "address",
          "name": "owner",
          "type": "address"
        }
      ],
      "name": "balanceOf",
      "outputs": [
        {
          "internalType": "uint256",
          "name": "",
          "type": "uint256"
        }
      ],
      "stateMutability": "view",
      "type": "function"
    },
    {
      "inputs": [],
      "name": "baseURI",
      "outputs": [
        {
          "internalType": "string",
          "name": "",
          "type": "string"
        }
      ],
      "stateMutability": "view",
      "type": "function"
    },
    {
      "inputs": [
        {
          "internalType": "address",
          "name": "claimer",
          "type": "address"
        }
      ],
      "name": "canClaimFreeMint",
      "outputs": [
        {
          "internalType": "bool",
          "name": "",
          "type": "bool"
        }
      ],
      "stateMutability": "view",
      "type": "function"
    },
    {
      "inputs": [
        {
          "internalType": "address",
          "name": "",
          "type": "address"
        }
      ],
      "name": "freeMintClaimed",
      "outputs": [
        {
          "internalType": "bool",
          "name": "",
          "type": "bool"
        }
      ],
      "stateMutability": "view",
      "type": "function"
    },
    {
      "inputs": [
        {
          "internalType": "uint256",
          "name": "tokenId",
          "type": "uint256"
        }
      ],
      "name": "getApproved",
      "outputs": [
        {
          "internalType": "address",
          "name": "",
          "type": "address"
        }
      ],
      "stateMutability": "view",
      "type": "function"
    },
    {
      "inputs": [
        {
          "internalType": "address",
          "name": "owner",
          "type": "address"
        },
        {
          "internalType": "address",
          "name": "operator",
          "type": "address"
        }
      ],
      "name": "isApprovedForAll",
      "outputs": [
        {
          "internalType": "bool",
          "name": "",
          "type": "bool"
        }
      ],
      "stateMutability": "view",
      "type": "function"
    },
    {
      "inputs": [
        {
          "internalType": "uint256",
          "name": "amountToBuy",
          "type": "uint256"
        }
      ],
      "name": "mint",
      "outputs": [],
      "stateMutability": "payable",
      "type": "function"
    },
    {
      "inputs": [],
      "name": "name",
      "outputs": [
        {
          "internalType": "string",
          "name": "",
          "type": "string"
        }
      ],
      "stateMutability": "view",
      "type": "function"
    },
    {
      "inputs": [],
      "name": "owner",
      "outputs": [
        {
          "internalType": "address",
          "name": "",
          "type": "address"
        }
      ],
      "stateMutability": "view",
      "type": "function"
    },
    {
      "inputs": [
        {
          "internalType": "uint256",
          "name": "tokenId",
          "type": "uint256"
        }
      ],
      "name": "ownerOf",
      "outputs": [
        {
          "internalType": "address",
          "name": "",
          "type": "address"
        }
      ],
      "stateMutability": "view",
      "type": "function"
    },
    {
      "inputs": [],
      "name": "presaleEnabled",
      "outputs": [
        {
          "internalType": "bool",
          "name": "",
          "type": "bool"
        }
      ],
      "stateMutability": "view",
      "type": "function"
    },
    {
      "inputs": [],
      "name": "price",
      "outputs": [
        {
          "internalType": "uint256",
          "name": "",
          "type": "uint256"
        }
      ],
      "stateMutability": "view",
      "type": "function"
    },
    {
      "inputs": [
        {
          "internalType": "address[]",
          "name": "addresses",
          "type": "address[]"
        }
      ],
      "name": "removeAdmins",
      "outputs": [],
      "stateMutability": "nonpayable",
      "type": "function"
    },
    {
      "inputs": [
        {
          "internalType": "address[]",
          "name": "addresses",
          "type": "address[]"
        }
      ],
      "name": "removeFromWhitelist",
      "outputs": [],
      "stateMutability": "nonpayable",
      "type": "function"
    },
    {
      "inputs": [
        {
          "internalType": "address",
          "name": "from",
          "type": "address"
        },
        {
          "internalType": "address",
          "name": "to",
          "type": "address"
        },
        {
          "internalType": "uint256",
          "name": "tokenId",
          "type": "uint256"
        }
      ],
      "name": "safeTransferFrom",
      "outputs": [],
      "stateMutability": "nonpayable",
      "type": "function"
    },
    {
      "inputs": [
        {
          "internalType": "address",
          "name": "from",
          "type": "address"
        },
        {
          "internalType": "address",
          "name": "to",
          "type": "address"
        },
        {
          "internalType": "uint256",
          "name": "tokenId",
          "type": "uint256"
        },
        {
          "internalType": "bytes",
          "name": "_data",
          "type": "bytes"
        }
      ],
      "name": "safeTransferFrom",
      "outputs": [],
      "stateMutability": "nonpayable",
      "type": "function"
    },
    {
      "inputs": [],
      "name": "saleEnabled",
      "outputs": [
        {
          "internalType": "bool",
          "name": "",
          "type": "bool"
        }
      ],
      "stateMutability": "view",
      "type": "function"
    },
    {
      "inputs": [
        {
          "internalType": "bool",
          "name": "to",
          "type": "bool"
        }
      ],
      "name": "setAdminsLock",
      "outputs": [],
      "stateMutability": "nonpayable",
      "type": "function"
    },
    {
      "inputs": [
        {
          "internalType": "address",
          "name": "operator",
          "type": "address"
        },
        {
          "internalType": "bool",
          "name": "approved",
          "type": "bool"
        }
      ],
      "name": "setApprovalForAll",
      "outputs": [],
      "stateMutability": "nonpayable",
      "type": "function"
    },
    {
      "inputs": [
        {
          "internalType": "bool",
          "name": "to",
          "type": "bool"
        }
      ],
      "name": "setPresaleEnabled",
      "outputs": [],
      "stateMutability": "nonpayable",
      "type": "function"
    },
    {
      "inputs": [
        {
          "internalType": "uint256",
          "name": "to",
          "type": "uint256"
        }
      ],
      "name": "setPrice",
      "outputs": [],
      "stateMutability": "nonpayable",
      "type": "function"
    },
    {
      "inputs": [
        {
          "internalType": "bool",
          "name": "to",
          "type": "bool"
        }
      ],
      "name": "setSaleEnabled",
      "outputs": [],
      "stateMutability": "nonpayable",
      "type": "function"
    },
    {
      "inputs": [],
      "name": "soldOut",
      "outputs": [
        {
          "internalType": "bool",
          "name": "",
          "type": "bool"
        }
      ],
      "stateMutability": "view",
      "type": "function"
    },
    {
      "inputs": [
        {
          "internalType": "bytes4",
          "name": "interfaceId",
          "type": "bytes4"
        }
      ],
      "name": "supportsInterface",
      "outputs": [
        {
          "internalType": "bool",
          "name": "",
          "type": "bool"
        }
      ],
      "stateMutability": "view",
      "type": "function"
    },
    {
      "inputs": [],
      "name": "symbol",
      "outputs": [
        {
          "internalType": "string",
          "name": "",
          "type": "string"
        }
      ],
      "stateMutability": "view",
      "type": "function"
    },
    {
      "inputs": [
        {
          "internalType": "uint256",
          "name": "startAt",
          "type": "uint256"
        },
        {
          "internalType": "uint256",
          "name": "limit",
          "type": "uint256"
        }
      ],
      "name": "tokenOwners",
      "outputs": [
        {
          "internalType": "address[]",
          "name": "",
          "type": "address[]"
        },
        {
          "internalType": "uint256",
          "name": "",
          "type": "uint256"
        }
      ],
      "stateMutability": "view",
      "type": "function"
    },
    {
      "inputs": [
        {
          "internalType": "uint256",
          "name": "tokenId",
          "type": "uint256"
        }
      ],
      "name": "tokenURI",
      "outputs": [
        {
          "internalType": "string",
          "name": "",
          "type": "string"
        }
      ],
      "stateMutability": "view",
      "type": "function"
    },
    {
      "inputs": [],
      "name": "totalSupply",
      "outputs": [
        {
          "internalType": "uint256",
          "name": "",
          "type": "uint256"
        }
      ],
      "stateMutability": "view",
      "type": "function"
    },
    {
      "inputs": [
        {
          "internalType": "address",
          "name": "from",
          "type": "address"
        },
        {
          "internalType": "address",
          "name": "to",
          "type": "address"
        },
        {
          "internalType": "uint256",
          "name": "tokenId",
          "type": "uint256"
        }
      ],
      "name": "transferFrom",
      "outputs": [],
      "stateMutability": "nonpayable",
      "type": "function"
    },
    {
      "inputs": [
        {
          "internalType": "address",
          "name": "",
          "type": "address"
        }
      ],
      "name": "whitelist",
      "outputs": [
        {
          "internalType": "bool",
          "name": "",
          "type": "bool"
        }
      ],
      "stateMutability": "view",
      "type": "function"
    },
    {
      "inputs": [],
      "name": "withdraw",
      "outputs": [],
      "stateMutability": "nonpayable",
      "type": "function"
    }
  ],
  "bytecode": "0x60a060405266b1a2bc2ec500006007553480156200001c57600080fd5b50604051620055af380380620055af8339818101604052810190620000429190620001fb565b828281600090805190602001906200005c929190620000d9565b50806001908051906020019062000075929190620000d9565b50505060016006819055503373ffffffffffffffffffffffffffffffffffffffff1660808173ffffffffffffffffffffffffffffffffffffffff1660601b8152505080600e9080519060200190620000cf929190620000d9565b505050506200040c565b828054620000e79062000331565b90600052602060002090601f0160209004810192826200010b576000855562000157565b82601f106200012657805160ff191683800117855562000157565b8280016001018555821562000157579182015b828111156200015657825182559160200191906001019062000139565b5b5090506200016691906200016a565b5090565b5b80821115620001855760008160009055506001016200016b565b5090565b6000620001a06200019a84620002c5565b6200029c565b905082815260208101848484011115620001b957600080fd5b620001c6848285620002fb565b509392505050565b600082601f830112620001e057600080fd5b8151620001f284826020860162000189565b91505092915050565b6000806000606084860312156200021157600080fd5b600084015167ffffffffffffffff8111156200022c57600080fd5b6200023a86828701620001ce565b935050602084015167ffffffffffffffff8111156200025857600080fd5b6200026686828701620001ce565b925050604084015167ffffffffffffffff8111156200028457600080fd5b6200029286828701620001ce565b9150509250925092565b6000620002a8620002bb565b9050620002b6828262000367565b919050565b6000604051905090565b600067ffffffffffffffff821115620002e357620002e2620003cc565b5b620002ee82620003fb565b9050602081019050919050565b60005b838110156200031b578082015181840152602081019050620002fe565b838111156200032b576000848401525b50505050565b600060028204905060018216806200034a57607f821691505b602082108114156200036157620003606200039d565b5b50919050565b6200037282620003fb565b810181811067ffffffffffffffff82111715620003945762000393620003cc565b5b80604052505050565b7f4e487b7100000000000000000000000000000000000000000000000000000000600052602260045260246000fd5b7f4e487b7100000000000000000000000000000000000000000000000000000000600052604160045260246000fd5b6000601f19601f8301169050919050565b60805160601c6151376200047860003960008181610c6a01528181610e0501528181610fae015281816110900152818161128c015281816115c501528181611838015281816119f401528181611a1801528181611bb60152818161225901526124e701526151376000f3fe60806040526004361061021a5760003560e01c806371b9b64611610123578063a035b1fe116100ab578063c10225b81161006f578063c10225b8146107c1578063c70b1270146107ea578063c87b56dd14610827578063e0ec7c3614610864578063e985e9c5146108a15761021a565b8063a035b1fe146106ff578063a0712d681461072a578063a192783c14610746578063a22cb4651461076f578063b88d4fde146107985761021a565b80638da5cb5b116100f25780638da5cb5b1461061a57806391b7f5ed1461064557806395d89b411461066e5780639b19251a146106995780639c54df64146106d65761021a565b806371b9b64614610572578063729ad39e1461059d5780637f649783146105c6578063893da6c9146105ef5761021a565b8063377e11e0116101a6578063543e062c11610175578063543e062c14610466578063548db174146104a45780636352211e146104cd5780636c0360eb1461050a57806370a08231146105355761021a565b8063377e11e0146103c05780633ccfd60b146103e957806342842e0e14610400578063429b62e5146104295761021a565b8063143b237f116101ed578063143b237f146102ed57806318160ddd1461031857806323b872dd146103435780633020a18e1461036c57806332cb6b0c146103955761021a565b806301ffc9a71461021f57806306fdde031461025c578063081812fc14610287578063095ea7b3146102c4575b600080fd5b34801561022b57600080fd5b506102466004803603810190610241919061369b565b6108de565b6040516102539190613e2b565b60405180910390f35b34801561026857600080fd5b506102716109c0565b60405161027e9190613e46565b60405180910390f35b34801561029357600080fd5b506102ae60048036038101906102a991906136ed565b610a52565b6040516102bb9190613d94565b60405180910390f35b3480156102d057600080fd5b506102eb60048036038101906102e691906135f1565b610ad7565b005b3480156102f957600080fd5b50610302610bef565b60405161030f9190613e2b565b60405180910390f35b34801561032457600080fd5b5061032d610c02565b60405161033a91906142c8565b60405180910390f35b34801561034f57600080fd5b5061036a600480360381019061036591906134eb565b610c08565b005b34801561037857600080fd5b50610393600480360381019061038e9190613672565b610c68565b005b3480156103a157600080fd5b506103aa610dfd565b6040516103b791906142c8565b60405180910390f35b3480156103cc57600080fd5b506103e760048036038101906103e2919061362d565b610e03565b005b3480156103f557600080fd5b506103fe610fac565b005b34801561040c57600080fd5b50610427600480360381019061042291906134eb565b6110f7565b005b34801561043557600080fd5b50610450600480360381019061044b9190613486565b611117565b60405161045d9190613e2b565b60405180910390f35b34801561047257600080fd5b5061048d60048036038101906104889190613716565b611137565b60405161049b929190613dfb565b60405180910390f35b3480156104b057600080fd5b506104cb60048036038101906104c6919061362d565b61128a565b005b3480156104d957600080fd5b506104f460048036038101906104ef91906136ed565b611437565b6040516105019190613d94565b60405180910390f35b34801561051657600080fd5b5061051f6114e9565b60405161052c9190613e46565b60405180910390f35b34801561054157600080fd5b5061055c60048036038101906105579190613486565b6114f8565b60405161056991906142c8565b60405180910390f35b34801561057e57600080fd5b506105876115b0565b6040516105949190613e2b565b60405180910390f35b3480156105a957600080fd5b506105c460048036038101906105bf919061362d565b6115c3565b005b3480156105d257600080fd5b506105ed60048036038101906105e8919061362d565b611836565b005b3480156105fb57600080fd5b506106046119e3565b6040516106119190613e2b565b60405180910390f35b34801561062657600080fd5b5061062f6119f2565b60405161063c9190613d94565b60405180910390f35b34801561065157600080fd5b5061066c600480360381019061066791906136ed565b611a16565b005b34801561067a57600080fd5b50610683611b02565b6040516106909190613e46565b60405180910390f35b3480156106a557600080fd5b506106c060048036038101906106bb9190613486565b611b94565b6040516106cd9190613e2b565b60405180910390f35b3480156106e257600080fd5b506106fd60048036038101906106f8919061362d565b611bb4565b005b34801561070b57600080fd5b50610714611d5d565b60405161072191906142c8565b60405180910390f35b610744600480360381019061073f91906136ed565b611d63565b005b34801561075257600080fd5b5061076d60048036038101906107689190613672565b612257565b005b34801561077b57600080fd5b50610796600480360381019061079191906135b5565b612302565b005b3480156107a457600080fd5b506107bf60048036038101906107ba919061353a565b612483565b005b3480156107cd57600080fd5b506107e860048036038101906107e39190613672565b6124e5565b005b3480156107f657600080fd5b50610811600480360381019061080c9190613486565b61267b565b60405161081e9190613e2b565b60405180910390f35b34801561083357600080fd5b5061084e600480360381019061084991906136ed565b612727565b60405161085b9190613e46565b60405180910390f35b34801561087057600080fd5b5061088b60048036038101906108869190613486565b6127ce565b6040516108989190613e2b565b60405180910390f35b3480156108ad57600080fd5b506108c860048036038101906108c391906134af565b6127ee565b6040516108d59190613e2b565b60405180910390f35b60007f80ac58cd000000000000000000000000000000000000000000000000000000007bffffffffffffffffffffffffffffffffffffffffffffffffffffffff1916827bffffffffffffffffffffffffffffffffffffffffffffffffffffffff191614806109a957507f5b5e139f000000000000000000000000000000000000000000000000000000007bffffffffffffffffffffffffffffffffffffffffffffffffffffffff1916827bffffffffffffffffffffffffffffffffffffffffffffffffffffffff1916145b806109b957506109b882612882565b5b9050919050565b6060600080546109cf906145aa565b80601f01602080910402602001604051908101604052809291908181526020018280546109fb906145aa565b8015610a485780601f10610a1d57610100808354040283529160200191610a48565b820191906000526020600020905b815481529060010190602001808311610a2b57829003601f168201915b5050505050905090565b6000610a5d826128ec565b610a9c576040517f08c379a0000000000000000000000000000000000000000000000000000000008152600401610a9390614128565b60405180910390fd5b6004600083815260200190815260200160002060009054906101000a900473ffffffffffffffffffffffffffffffffffffffff169050919050565b6000610ae282611437565b90508073ffffffffffffffffffffffffffffffffffffffff168373ffffffffffffffffffffffffffffffffffffffff161415610b53576040517f08c379a0000000000000000000000000000000000000000000000000000000008152600401610b4a90614228565b60405180910390fd5b8073ffffffffffffffffffffffffffffffffffffffff16610b72612958565b73ffffffffffffffffffffffffffffffffffffffff161480610ba15750610ba081610b9b612958565b6127ee565b5b610be0576040517f08c379a0000000000000000000000000000000000000000000000000000000008152600401610bd790614068565b60405180910390fd5b610bea8383612960565b505050565b600860009054906101000a900460ff1681565b600d5481565b610c19610c13612958565b82612a19565b610c58576040517f08c379a0000000000000000000000000000000000000000000000000000000008152600401610c4f90614248565b60405180910390fd5b610c63838383612af7565b505050565b7f000000000000000000000000000000000000000000000000000000000000000073ffffffffffffffffffffffffffffffffffffffff163373ffffffffffffffffffffffffffffffffffffffff161480610d0b5750600960003373ffffffffffffffffffffffffffffffffffffffff1673ffffffffffffffffffffffffffffffffffffffff16815260200190815260200160002060009054906101000a900460ff165b610d4a576040517f08c379a0000000000000000000000000000000000000000000000000000000008152600401610d4190614288565b60405180910390fd5b600860009054906101000a900460ff16610d99576040517f08c379a0000000000000000000000000000000000000000000000000000000008152600401610d9090614208565b60405180910390fd5b610c35600d541415610de0576040517f08c379a0000000000000000000000000000000000000000000000000000000008152600401610dd790614008565b60405180910390fd5b80600860016101000a81548160ff02191690831515021790555050565b610c3581565b7f000000000000000000000000000000000000000000000000000000000000000073ffffffffffffffffffffffffffffffffffffffff163373ffffffffffffffffffffffffffffffffffffffff1614610e91576040517f08c379a0000000000000000000000000000000000000000000000000000000008152600401610e8890613f68565b60405180910390fd5b600a60009054906101000a900460ff1615610ee1576040517f08c379a0000000000000000000000000000000000000000000000000000000008152600401610ed890613ea8565b60405180910390fd5b60005b82829050811015610fa757600060096000858585818110610f2e577f4e487b7100000000000000000000000000000000000000000000000000000000600052603260045260246000fd5b9050602002016020810190610f439190613486565b73ffffffffffffffffffffffffffffffffffffffff1673ffffffffffffffffffffffffffffffffffffffff16815260200190815260200160002060006101000a81548160ff0219169083151502179055508080610f9f9061460d565b915050610ee4565b505050565b7f000000000000000000000000000000000000000000000000000000000000000073ffffffffffffffffffffffffffffffffffffffff163373ffffffffffffffffffffffffffffffffffffffff16148061104f5750600960003373ffffffffffffffffffffffffffffffffffffffff1673ffffffffffffffffffffffffffffffffffffffff16815260200190815260200160002060009054906101000a900460ff165b61108e576040517f08c379a0000000000000000000000000000000000000000000000000000000008152600401611085906140c8565b60405180910390fd5b7f000000000000000000000000000000000000000000000000000000000000000073ffffffffffffffffffffffffffffffffffffffff166108fc479081150290604051600060405180830381858888f193505050501580156110f4573d6000803e3d6000fd5b50565b61111283838360405180602001604052806000815250612483565b505050565b60096020528060005260406000206000915054906101000a900460ff1681565b60606000808367ffffffffffffffff81111561117c577f4e487b7100000000000000000000000000000000000000000000000000000000600052604160045260246000fd5b6040519080825280602002602001820160405280156111aa5781602001602082028036833780820191505090505b5090506000805b85811080156111cd5750600d5487826111ca91906143b5565b11155b1561127a576111e681886111e191906143b5565b611437565b83828151811061121f577f4e487b7100000000000000000000000000000000000000000000000000000000600052603260045260246000fd5b602002602001019073ffffffffffffffffffffffffffffffffffffffff16908173ffffffffffffffffffffffffffffffffffffffff168152505081806112649061460d565b92505080806112729061460d565b9150506111b1565b5081819350935050509250929050565b7f000000000000000000000000000000000000000000000000000000000000000073ffffffffffffffffffffffffffffffffffffffff163373ffffffffffffffffffffffffffffffffffffffff16148061132d5750600960003373ffffffffffffffffffffffffffffffffffffffff1673ffffffffffffffffffffffffffffffffffffffff16815260200190815260200160002060009054906101000a900460ff165b61136c576040517f08c379a000000000000000000000000000000000000000000000000000000000815260040161136390614028565b60405180910390fd5b60005b82829050811015611432576000600b60008585858181106113b9577f4e487b7100000000000000000000000000000000000000000000000000000000600052603260045260246000fd5b90506020020160208101906113ce9190613486565b73ffffffffffffffffffffffffffffffffffffffff1673ffffffffffffffffffffffffffffffffffffffff16815260200190815260200160002060006101000a81548160ff021916908315150217905550808061142a9061460d565b91505061136f565b505050565b6000806002600084815260200190815260200160002060009054906101000a900473ffffffffffffffffffffffffffffffffffffffff169050600073ffffffffffffffffffffffffffffffffffffffff168173ffffffffffffffffffffffffffffffffffffffff1614156114e0576040517f08c379a00000000000000000000000000000000000000000000000000000000081526004016114d7906140a8565b60405180910390fd5b80915050919050565b60606114f3612d53565b905090565b60008073ffffffffffffffffffffffffffffffffffffffff168273ffffffffffffffffffffffffffffffffffffffff161415611569576040517f08c379a000000000000000000000000000000000000000000000000000000000815260040161156090614088565b60405180910390fd5b600360008373ffffffffffffffffffffffffffffffffffffffff1673ffffffffffffffffffffffffffffffffffffffff168152602001908152602001600020549050919050565b600860019054906101000a900460ff1681565b7f000000000000000000000000000000000000000000000000000000000000000073ffffffffffffffffffffffffffffffffffffffff163373ffffffffffffffffffffffffffffffffffffffff1614611651576040517f08c379a0000000000000000000000000000000000000000000000000000000008152600401611648906140e8565b60405180910390fd5b60005b82829050811015611831576116c283838381811061169b577f4e487b7100000000000000000000000000000000000000000000000000000000600052603260045260246000fd5b90506020020160208101906116b09190613486565b6001836116bd91906143b5565b612de5565b600d60008154809291906116d59061460d565b9190505550600c6000848484818110611717577f4e487b7100000000000000000000000000000000000000000000000000000000600052603260045260246000fd5b905060200201602081019061172c9190613486565b73ffffffffffffffffffffffffffffffffffffffff1673ffffffffffffffffffffffffffffffffffffffff16815260200190815260200160002060009054906101000a900460ff1661181e576001600c60008585858181106117b7577f4e487b7100000000000000000000000000000000000000000000000000000000600052603260045260246000fd5b90506020020160208101906117cc9190613486565b73ffffffffffffffffffffffffffffffffffffffff1673ffffffffffffffffffffffffffffffffffffffff16815260200190815260200160002060006101000a81548160ff0219169083151502179055505b80806118299061460d565b915050611654565b505050565b7f000000000000000000000000000000000000000000000000000000000000000073ffffffffffffffffffffffffffffffffffffffff163373ffffffffffffffffffffffffffffffffffffffff1614806118d95750600960003373ffffffffffffffffffffffffffffffffffffffff1673ffffffffffffffffffffffffffffffffffffffff16815260200190815260200160002060009054906101000a900460ff165b611918576040517f08c379a000000000000000000000000000000000000000000000000000000000815260040161190f90614268565b60405180910390fd5b60005b828290508110156119de576001600b6000858585818110611965577f4e487b7100000000000000000000000000000000000000000000000000000000600052603260045260246000fd5b905060200201602081019061197a9190613486565b73ffffffffffffffffffffffffffffffffffffffff1673ffffffffffffffffffffffffffffffffffffffff16815260200190815260200160002060006101000a81548160ff02191690831515021790555080806119d69061460d565b91505061191b565b505050565b6000610c35600d541015905090565b7f000000000000000000000000000000000000000000000000000000000000000081565b7f000000000000000000000000000000000000000000000000000000000000000073ffffffffffffffffffffffffffffffffffffffff163373ffffffffffffffffffffffffffffffffffffffff161480611ab95750600960003373ffffffffffffffffffffffffffffffffffffffff1673ffffffffffffffffffffffffffffffffffffffff16815260200190815260200160002060009054906101000a900460ff165b611af8576040517f08c379a0000000000000000000000000000000000000000000000000000000008152600401611aef90614148565b60405180910390fd5b8060078190555050565b606060018054611b11906145aa565b80601f0160208091040260200160405190810160405280929190818152602001828054611b3d906145aa565b8015611b8a5780601f10611b5f57610100808354040283529160200191611b8a565b820191906000526020600020905b815481529060010190602001808311611b6d57829003601f168201915b5050505050905090565b600b6020528060005260406000206000915054906101000a900460ff1681565b7f000000000000000000000000000000000000000000000000000000000000000073ffffffffffffffffffffffffffffffffffffffff163373ffffffffffffffffffffffffffffffffffffffff1614611c42576040517f08c379a0000000000000000000000000000000000000000000000000000000008152600401611c3990613fe8565b60405180910390fd5b600a60009054906101000a900460ff1615611c92576040517f08c379a0000000000000000000000000000000000000000000000000000000008152600401611c8990613ea8565b60405180910390fd5b60005b82829050811015611d5857600160096000858585818110611cdf577f4e487b7100000000000000000000000000000000000000000000000000000000600052603260045260246000fd5b9050602002016020810190611cf49190613486565b73ffffffffffffffffffffffffffffffffffffffff1673ffffffffffffffffffffffffffffffffffffffff16815260200190815260200160002060006101000a81548160ff0219169083151502179055508080611d509061460d565b915050611c95565b505050565b60075481565b60026006541415611da9576040517f08c379a0000000000000000000000000000000000000000000000000000000008152600401611da0906142a8565b60405180910390fd5b60026006819055506000600b60003373ffffffffffffffffffffffffffffffffffffffff1673ffffffffffffffffffffffffffffffffffffffff16815260200190815260200160002060009054906101000a900460ff1690506000818015611e5b5750600c60003373ffffffffffffffffffffffffffffffffffffffff1673ffffffffffffffffffffffffffffffffffffffff16815260200190815260200160002060009054906101000a900460ff16155b9050610c35600d5410611ea3576040517f08c379a0000000000000000000000000000000000000000000000000000000008152600401611e9a90614168565b60405180910390fd5b600860019054906101000a900460ff16158015611ecc5750600860009054906101000a900460ff165b15611f165781611f11576040517f08c379a0000000000000000000000000000000000000000000000000000000008152600401611f08906141e8565b60405180910390fd5b611f66565b600860019054906101000a900460ff16611f65576040517f08c379a0000000000000000000000000000000000000000000000000000000008152600401611f5c90614188565b60405180910390fd5b5b600083118015611f775750600a8311155b611fb6576040517f08c379a0000000000000000000000000000000000000000000000000000000008152600401611fad90613f28565b60405180910390fd5b801561207457600183611fc99190614496565b600754611fd6919061443c565b3414612017576040517f08c379a000000000000000000000000000000000000000000000000000000000815260040161200e90613f48565b60405180910390fd5b6001600c60003373ffffffffffffffffffffffffffffffffffffffff1673ffffffffffffffffffffffffffffffffffffffff16815260200190815260200160002060006101000a81548160ff0219169083151502179055506120c4565b82600754612082919061443c565b34146120c3576040517f08c379a00000000000000000000000000000000000000000000000000000000081526004016120ba90613f48565b60405180910390fd5b5b60008390505b60008114612249576120f033600d600081546120e59061460d565b919050819055612de5565b610c35600d541415612236576000600860016101000a81548160ff0219169083151502179055506000600860006101000a81548160ff021916908315150217905550818015612156575060006001828661214a9190614496565b6121549190614496565b115b156121cb573373ffffffffffffffffffffffffffffffffffffffff166108fc600754600184886121869190614496565b6121909190614496565b61219a919061443c565b9081150290604051600060405180830381858888f193505050501580156121c5573d6000803e3d6000fd5b50612231565b81612230573373ffffffffffffffffffffffffffffffffffffffff166108fc60075483876121f99190614496565b612203919061443c565b9081150290604051600060405180830381858888f1935050505015801561222e573d6000803e3d6000fd5b505b5b612249565b808061224190614580565b9150506120ca565b505050600160068190555050565b7f000000000000000000000000000000000000000000000000000000000000000073ffffffffffffffffffffffffffffffffffffffff163373ffffffffffffffffffffffffffffffffffffffff16146122e5576040517f08c379a00000000000000000000000000000000000000000000000000000000081526004016122dc90613e68565b60405180910390fd5b80600a60006101000a81548160ff02191690831515021790555050565b61230a612958565b73ffffffffffffffffffffffffffffffffffffffff168273ffffffffffffffffffffffffffffffffffffffff161415612378576040517f08c379a000000000000000000000000000000000000000000000000000000000815260040161236f90613fa8565b60405180910390fd5b8060056000612385612958565b73ffffffffffffffffffffffffffffffffffffffff1673ffffffffffffffffffffffffffffffffffffffff16815260200190815260200160002060008473ffffffffffffffffffffffffffffffffffffffff1673ffffffffffffffffffffffffffffffffffffffff16815260200190815260200160002060006101000a81548160ff0219169083151502179055508173ffffffffffffffffffffffffffffffffffffffff16612432612958565b73ffffffffffffffffffffffffffffffffffffffff167f17307eab39ab6107e8899845ad3d59bd9653f200f220920489ca2b5937696c31836040516124779190613e2b565b60405180910390a35050565b61249461248e612958565b83612a19565b6124d3576040517f08c379a00000000000000000000000000000000000000000000000000000000081526004016124ca90614248565b60405180910390fd5b6124df84848484612fb3565b50505050565b7f000000000000000000000000000000000000000000000000000000000000000073ffffffffffffffffffffffffffffffffffffffff163373ffffffffffffffffffffffffffffffffffffffff1614806125885750600960003373ffffffffffffffffffffffffffffffffffffffff1673ffffffffffffffffffffffffffffffffffffffff16815260200190815260200160002060009054906101000a900460ff165b6125c7576040517f08c379a00000000000000000000000000000000000000000000000000000000081526004016125be90613e88565b60405180910390fd5b600860019054906101000a900460ff1615612617576040517f08c379a000000000000000000000000000000000000000000000000000000000815260040161260e90613ee8565b60405180910390fd5b610c35600d54141561265e576040517f08c379a000000000000000000000000000000000000000000000000000000000815260040161265590614048565b60405180910390fd5b80600860006101000a81548160ff02191690831515021790555050565b6000600b60008373ffffffffffffffffffffffffffffffffffffffff1673ffffffffffffffffffffffffffffffffffffffff16815260200190815260200160002060009054906101000a900460ff1680156127205750600c60008373ffffffffffffffffffffffffffffffffffffffff1673ffffffffffffffffffffffffffffffffffffffff16815260200190815260200160002060009054906101000a900460ff16155b9050919050565b6060612732826128ec565b612771576040517f08c379a0000000000000000000000000000000000000000000000000000000008152600401612768906141c8565b60405180910390fd5b600061277b612d53565b9050600081511161279b57604051806020016040528060008152506127c6565b806127a58461300f565b6040516020016127b6929190613d70565b6040516020818303038152906040525b915050919050565b600c6020528060005260406000206000915054906101000a900460ff1681565b6000600560008473ffffffffffffffffffffffffffffffffffffffff1673ffffffffffffffffffffffffffffffffffffffff16815260200190815260200160002060008373ffffffffffffffffffffffffffffffffffffffff1673ffffffffffffffffffffffffffffffffffffffff16815260200190815260200160002060009054906101000a900460ff16905092915050565b60007f01ffc9a7000000000000000000000000000000000000000000000000000000007bffffffffffffffffffffffffffffffffffffffffffffffffffffffff1916827bffffffffffffffffffffffffffffffffffffffffffffffffffffffff1916149050919050565b60008073ffffffffffffffffffffffffffffffffffffffff166002600084815260200190815260200160002060009054906101000a900473ffffffffffffffffffffffffffffffffffffffff1673ffffffffffffffffffffffffffffffffffffffff1614159050919050565b600033905090565b816004600083815260200190815260200160002060006101000a81548173ffffffffffffffffffffffffffffffffffffffff021916908373ffffffffffffffffffffffffffffffffffffffff160217905550808273ffffffffffffffffffffffffffffffffffffffff166129d383611437565b73ffffffffffffffffffffffffffffffffffffffff167f8c5be1e5ebec7d5bd14f71427d1e84f3dd0314c0f7b2291e5b200ac8c7c3b92560405160405180910390a45050565b6000612a24826128ec565b612a63576040517f08c379a0000000000000000000000000000000000000000000000000000000008152600401612a5a90613fc8565b60405180910390fd5b6000612a6e83611437565b90508073ffffffffffffffffffffffffffffffffffffffff168473ffffffffffffffffffffffffffffffffffffffff161480612add57508373ffffffffffffffffffffffffffffffffffffffff16612ac584610a52565b73ffffffffffffffffffffffffffffffffffffffff16145b80612aee5750612aed81856127ee565b5b91505092915050565b8273ffffffffffffffffffffffffffffffffffffffff16612b1782611437565b73ffffffffffffffffffffffffffffffffffffffff1614612b6d576040517f08c379a0000000000000000000000000000000000000000000000000000000008152600401612b64906141a8565b60405180910390fd5b600073ffffffffffffffffffffffffffffffffffffffff168273ffffffffffffffffffffffffffffffffffffffff161415612bdd576040517f08c379a0000000000000000000000000000000000000000000000000000000008152600401612bd490613f88565b60405180910390fd5b612be88383836131bc565b612bf3600082612960565b6001600360008573ffffffffffffffffffffffffffffffffffffffff1673ffffffffffffffffffffffffffffffffffffffff1681526020019081526020016000206000828254612c439190614496565b925050819055506001600360008473ffffffffffffffffffffffffffffffffffffffff1673ffffffffffffffffffffffffffffffffffffffff1681526020019081526020016000206000828254612c9a91906143b5565b92505081905550816002600083815260200190815260200160002060006101000a81548173ffffffffffffffffffffffffffffffffffffffff021916908373ffffffffffffffffffffffffffffffffffffffff160217905550808273ffffffffffffffffffffffffffffffffffffffff168473ffffffffffffffffffffffffffffffffffffffff167fddf252ad1be2c89b69c2b068fc378daa952ba7f163c4a11628f55a4df523b3ef60405160405180910390a4505050565b6060600e8054612d62906145aa565b80601f0160208091040260200160405190810160405280929190818152602001828054612d8e906145aa565b8015612ddb5780601f10612db057610100808354040283529160200191612ddb565b820191906000526020600020905b815481529060010190602001808311612dbe57829003601f168201915b5050505050905090565b600073ffffffffffffffffffffffffffffffffffffffff168273ffffffffffffffffffffffffffffffffffffffff161415612e55576040517f08c379a0000000000000000000000000000000000000000000000000000000008152600401612e4c90614108565b60405180910390fd5b612e5e816128ec565b15612e9e576040517f08c379a0000000000000000000000000000000000000000000000000000000008152600401612e9590613f08565b60405180910390fd5b612eaa600083836131bc565b6001600360008473ffffffffffffffffffffffffffffffffffffffff1673ffffffffffffffffffffffffffffffffffffffff1681526020019081526020016000206000828254612efa91906143b5565b92505081905550816002600083815260200190815260200160002060006101000a81548173ffffffffffffffffffffffffffffffffffffffff021916908373ffffffffffffffffffffffffffffffffffffffff160217905550808273ffffffffffffffffffffffffffffffffffffffff16600073ffffffffffffffffffffffffffffffffffffffff167fddf252ad1be2c89b69c2b068fc378daa952ba7f163c4a11628f55a4df523b3ef60405160405180910390a45050565b612fbe848484612af7565b612fca848484846131c1565b613009576040517f08c379a000000000000000000000000000000000000000000000000000000000815260040161300090613ec8565b60405180910390fd5b50505050565b60606000821415613057576040518060400160405280600181526020017f300000000000000000000000000000000000000000000000000000000000000081525090506131b7565b600082905060005b600082146130895780806130729061460d565b915050600a82613082919061440b565b915061305f565b60008167ffffffffffffffff8111156130cb577f4e487b7100000000000000000000000000000000000000000000000000000000600052604160045260246000fd5b6040519080825280601f01601f1916602001820160405280156130fd5781602001600182028036833780820191505090505b5090505b600085146131b0576001826131169190614496565b9150600a856131259190614656565b603061313191906143b5565b60f81b81838151811061316d577f4e487b7100000000000000000000000000000000000000000000000000000000600052603260045260246000fd5b60200101907effffffffffffffffffffffffffffffffffffffffffffffffffffffffffffff1916908160001a905350600a856131a9919061440b565b9450613101565b8093505050505b919050565b505050565b60006131e28473ffffffffffffffffffffffffffffffffffffffff16613358565b1561334b578373ffffffffffffffffffffffffffffffffffffffff1663150b7a0261320b612958565b8786866040518563ffffffff1660e01b815260040161322d9493929190613daf565b602060405180830381600087803b15801561324757600080fd5b505af192505050801561327857506040513d601f19601f8201168201806040525081019061327591906136c4565b60015b6132fb573d80600081146132a8576040519150601f19603f3d011682016040523d82523d6000602084013e6132ad565b606091505b506000815114156132f3576040517f08c379a00000000000000000000000000000000000000000000000000000000081526004016132ea90613ec8565b60405180910390fd5b805181602001fd5b63150b7a0260e01b7bffffffffffffffffffffffffffffffffffffffffffffffffffffffff1916817bffffffffffffffffffffffffffffffffffffffffffffffffffffffff191614915050613350565b600190505b949350505050565b600080823b905060008111915050919050565b600061337e61337984614308565b6142e3565b90508281526020810184848401111561339657600080fd5b6133a184828561453e565b509392505050565b6000813590506133b8816150a5565b92915050565b60008083601f8401126133d057600080fd5b8235905067ffffffffffffffff8111156133e957600080fd5b60208301915083602082028301111561340157600080fd5b9250929050565b600081359050613417816150bc565b92915050565b60008135905061342c816150d3565b92915050565b600081519050613441816150d3565b92915050565b600082601f83011261345857600080fd5b813561346884826020860161336b565b91505092915050565b600081359050613480816150ea565b92915050565b60006020828403121561349857600080fd5b60006134a6848285016133a9565b91505092915050565b600080604083850312156134c257600080fd5b60006134d0858286016133a9565b92505060206134e1858286016133a9565b9150509250929050565b60008060006060848603121561350057600080fd5b600061350e868287016133a9565b935050602061351f868287016133a9565b925050604061353086828701613471565b9150509250925092565b6000806000806080858703121561355057600080fd5b600061355e878288016133a9565b945050602061356f878288016133a9565b935050604061358087828801613471565b925050606085013567ffffffffffffffff81111561359d57600080fd5b6135a987828801613447565b91505092959194509250565b600080604083850312156135c857600080fd5b60006135d6858286016133a9565b92505060206135e785828601613408565b9150509250929050565b6000806040838503121561360457600080fd5b6000613612858286016133a9565b925050602061362385828601613471565b9150509250929050565b6000806020838503121561364057600080fd5b600083013567ffffffffffffffff81111561365a57600080fd5b613666858286016133be565b92509250509250929050565b60006020828403121561368457600080fd5b600061369284828501613408565b91505092915050565b6000602082840312156136ad57600080fd5b60006136bb8482850161341d565b91505092915050565b6000602082840312156136d657600080fd5b60006136e484828501613432565b91505092915050565b6000602082840312156136ff57600080fd5b600061370d84828501613471565b91505092915050565b6000806040838503121561372957600080fd5b600061373785828601613471565b925050602061374885828601613471565b9150509250929050565b600061375e838361376a565b60208301905092915050565b613773816144ca565b82525050565b613782816144ca565b82525050565b600061379382614349565b61379d8185614377565b93506137a883614339565b8060005b838110156137d95781516137c08882613752565b97506137cb8361436a565b9250506001810190506137ac565b5085935050505092915050565b6137ef816144dc565b82525050565b600061380082614354565b61380a8185614388565b935061381a81856020860161454d565b61382381614743565b840191505092915050565b60006138398261435f565b6138438185614399565b935061385381856020860161454d565b61385c81614743565b840191505092915050565b60006138728261435f565b61387c81856143aa565b935061388c81856020860161454d565b80840191505092915050565b60006138a5602383614399565b91506138b082614754565b604082019050919050565b60006138c8602c83614399565b91506138d3826147a3565b604082019050919050565b60006138eb602983614399565b91506138f6826147f2565b604082019050919050565b600061390e603283614399565b915061391982614841565b604082019050919050565b6000613931603583614399565b915061393c82614890565b604082019050919050565b6000613954601c83614399565b915061395f826148df565b602082019050919050565b6000613977600e83614399565b915061398282614908565b602082019050919050565b600061399a602983614399565b91506139a582614931565b604082019050919050565b60006139bd602483614399565b91506139c882614980565b604082019050919050565b60006139e0602483614399565b91506139eb826149cf565b604082019050919050565b6000613a03601983614399565b9150613a0e82614a1e565b602082019050919050565b6000613a26602c83614399565b9150613a3182614a47565b604082019050919050565b6000613a49602183614399565b9150613a5482614a96565b604082019050919050565b6000613a6c602a83614399565b9150613a7782614ae5565b604082019050919050565b6000613a8f602d83614399565b9150613a9a82614b34565b604082019050919050565b6000613ab2602d83614399565b9150613abd82614b83565b604082019050919050565b6000613ad5603883614399565b9150613ae082614bd2565b604082019050919050565b6000613af8602a83614399565b9150613b0382614c21565b604082019050919050565b6000613b1b602983614399565b9150613b2682614c70565b604082019050919050565b6000613b3e602083614399565b9150613b4982614cbf565b602082019050919050565b6000613b61601683614399565b9150613b6c82614ce8565b602082019050919050565b6000613b84602083614399565b9150613b8f82614d11565b602082019050919050565b6000613ba7602c83614399565b9150613bb282614d3a565b604082019050919050565b6000613bca602283614399565b9150613bd582614d89565b604082019050919050565b6000613bed601183614399565b9150613bf882614dd8565b602082019050919050565b6000613c10601083614399565b9150613c1b82614e01565b602082019050919050565b6000613c33602983614399565b9150613c3e82614e2a565b604082019050919050565b6000613c56602f83614399565b9150613c6182614e79565b604082019050919050565b6000613c79601783614399565b9150613c8482614ec8565b602082019050919050565b6000613c9c603483614399565b9150613ca782614ef1565b604082019050919050565b6000613cbf602183614399565b9150613cca82614f40565b604082019050919050565b6000613ce2603183614399565b9150613ced82614f8f565b604082019050919050565b6000613d05602883614399565b9150613d1082614fde565b604082019050919050565b6000613d28602983614399565b9150613d338261502d565b604082019050919050565b6000613d4b601f83614399565b9150613d568261507c565b602082019050919050565b613d6a81614534565b82525050565b6000613d7c8285613867565b9150613d888284613867565b91508190509392505050565b6000602082019050613da96000830184613779565b92915050565b6000608082019050613dc46000830187613779565b613dd16020830186613779565b613dde6040830185613d61565b8181036060830152613df081846137f5565b905095945050505050565b60006040820190508181036000830152613e158185613788565b9050613e246020830184613d61565b9392505050565b6000602082019050613e4060008301846137e6565b92915050565b60006020820190508181036000830152613e60818461382e565b905092915050565b60006020820190508181036000830152613e8181613898565b9050919050565b60006020820190508181036000830152613ea1816138bb565b9050919050565b60006020820190508181036000830152613ec1816138de565b9050919050565b60006020820190508181036000830152613ee181613901565b9050919050565b60006020820190508181036000830152613f0181613924565b9050919050565b60006020820190508181036000830152613f2181613947565b9050919050565b60006020820190508181036000830152613f418161396a565b9050919050565b60006020820190508181036000830152613f618161398d565b9050919050565b60006020820190508181036000830152613f81816139b0565b9050919050565b60006020820190508181036000830152613fa1816139d3565b9050919050565b60006020820190508181036000830152613fc1816139f6565b9050919050565b60006020820190508181036000830152613fe181613a19565b9050919050565b6000602082019050818103600083015261400181613a3c565b9050919050565b6000602082019050818103600083015261402181613a5f565b9050919050565b6000602082019050818103600083015261404181613a82565b9050919050565b6000602082019050818103600083015261406181613aa5565b9050919050565b6000602082019050818103600083015261408181613ac8565b9050919050565b600060208201905081810360008301526140a181613aeb565b9050919050565b600060208201905081810360008301526140c181613b0e565b9050919050565b600060208201905081810360008301526140e181613b31565b9050919050565b6000602082019050818103600083015261410181613b54565b9050919050565b6000602082019050818103600083015261412181613b77565b9050919050565b6000602082019050818103600083015261414181613b9a565b9050919050565b6000602082019050818103600083015261416181613bbd565b9050919050565b6000602082019050818103600083015261418181613be0565b9050919050565b600060208201905081810360008301526141a181613c03565b9050919050565b600060208201905081810360008301526141c181613c26565b9050919050565b600060208201905081810360008301526141e181613c49565b9050919050565b6000602082019050818103600083015261420181613c6c565b9050919050565b6000602082019050818103600083015261422181613c8f565b9050919050565b6000602082019050818103600083015261424181613cb2565b9050919050565b6000602082019050818103600083015261426181613cd5565b9050919050565b6000602082019050818103600083015261428181613cf8565b9050919050565b600060208201905081810360008301526142a181613d1b565b9050919050565b600060208201905081810360008301526142c181613d3e565b9050919050565b60006020820190506142dd6000830184613d61565b92915050565b60006142ed6142fe565b90506142f982826145dc565b919050565b6000604051905090565b600067ffffffffffffffff82111561432357614322614714565b5b61432c82614743565b9050602081019050919050565b6000819050602082019050919050565b600081519050919050565b600081519050919050565b600081519050919050565b6000602082019050919050565b600082825260208201905092915050565b600082825260208201905092915050565b600082825260208201905092915050565b600081905092915050565b60006143c082614534565b91506143cb83614534565b9250827fffffffffffffffffffffffffffffffffffffffffffffffffffffffffffffffff03821115614400576143ff614687565b5b828201905092915050565b600061441682614534565b915061442183614534565b925082614431576144306146b6565b5b828204905092915050565b600061444782614534565b915061445283614534565b9250817fffffffffffffffffffffffffffffffffffffffffffffffffffffffffffffffff048311821515161561448b5761448a614687565b5b828202905092915050565b60006144a182614534565b91506144ac83614534565b9250828210156144bf576144be614687565b5b828203905092915050565b60006144d582614514565b9050919050565b60008115159050919050565b60007fffffffff0000000000000000000000000000000000000000000000000000000082169050919050565b600073ffffffffffffffffffffffffffffffffffffffff82169050919050565b6000819050919050565b82818337600083830152505050565b60005b8381101561456b578082015181840152602081019050614550565b8381111561457a576000848401525b50505050565b600061458b82614534565b9150600082141561459f5761459e614687565b5b600182039050919050565b600060028204905060018216806145c257607f821691505b602082108114156145d6576145d56146e5565b5b50919050565b6145e582614743565b810181811067ffffffffffffffff8211171561460457614603614714565b5b80604052505050565b600061461882614534565b91507fffffffffffffffffffffffffffffffffffffffffffffffffffffffffffffffff82141561464b5761464a614687565b5b600182019050919050565b600061466182614534565b915061466c83614534565b92508261467c5761467b6146b6565b5b828206905092915050565b7f4e487b7100000000000000000000000000000000000000000000000000000000600052601160045260246000fd5b7f4e487b7100000000000000000000000000000000000000000000000000000000600052601260045260246000fd5b7f4e487b7100000000000000000000000000000000000000000000000000000000600052602260045260246000fd5b7f4e487b7100000000000000000000000000000000000000000000000000000000600052604160045260246000fd5b6000601f19601f8301169050919050565b7f4f6e6c79206f776e65722063616e207365742061646d696e206c6f636b20737460008201527f6174650000000000000000000000000000000000000000000000000000000000602082015250565b7f4f6e6c79206f776e6572206f722061646d696e2063616e206368616e6765207060008201527f726573616c652073746174650000000000000000000000000000000000000000602082015250565b7f43616e6e6f74206368616e67652061646d696e6973747261746f72732077686960008201527f6c65206c6f636b65640000000000000000000000000000000000000000000000602082015250565b7f4552433732313a207472616e7366657220746f206e6f6e20455243373231526560008201527f63656976657220696d706c656d656e7465720000000000000000000000000000602082015250565b7f43616e6e6f74206368616e67652070726573616c65207374617465207768696c60008201527f65207075626c69632073616c65206973206c6976650000000000000000000000602082015250565b7f4552433732313a20746f6b656e20616c7265616479206d696e74656400000000600082015250565b7f496e76616c696420616d6f756e74000000000000000000000000000000000000600082015250565b7f496e76616c696420616d6f756e74206f6620657468657220666f7220616d6f7560008201527f6e7420746f206275790000000000000000000000000000000000000000000000602082015250565b7f4f6e6c79206f776e65722063616e2072656d6f76652061646d696e697374726160008201527f746f727300000000000000000000000000000000000000000000000000000000602082015250565b7f4552433732313a207472616e7366657220746f20746865207a65726f2061646460008201527f7265737300000000000000000000000000000000000000000000000000000000602082015250565b7f4552433732313a20617070726f766520746f2063616c6c657200000000000000600082015250565b7f4552433732313a206f70657261746f7220717565727920666f72206e6f6e657860008201527f697374656e7420746f6b656e0000000000000000000000000000000000000000602082015250565b7f4f6e6c79206f776e65722063616e206164642061646d696e6973747261746f7260008201527f7300000000000000000000000000000000000000000000000000000000000000602082015250565b7f43616e6e6f74206368616e67652073616c65207374617465206166746572207360008201527f656c6c696e67206f757400000000000000000000000000000000000000000000602082015250565b7f4f6e6c79206f776e6572206f722061646d696e2063616e2072656d6f7665206660008201527f726f6d2077686974656c69737400000000000000000000000000000000000000602082015250565b7f43616e6e6f74206368616e67652070726573616c65207374617465206166746560008201527f722073656c6c696e67206f757400000000000000000000000000000000000000602082015250565b7f4552433732313a20617070726f76652063616c6c6572206973206e6f74206f7760008201527f6e6572206e6f7220617070726f76656420666f7220616c6c0000000000000000602082015250565b7f4552433732313a2062616c616e636520717565727920666f7220746865207a6560008201527f726f206164647265737300000000000000000000000000000000000000000000602082015250565b7f4552433732313a206f776e657220717565727920666f72206e6f6e657869737460008201527f656e7420746f6b656e0000000000000000000000000000000000000000000000602082015250565b7f4f6e6c79206f776e6572206f722061646d696e2063616e207769746864726177600082015250565b7f4f6e6c79206f776e65722063616e2061697264726f7000000000000000000000600082015250565b7f4552433732313a206d696e7420746f20746865207a65726f2061646472657373600082015250565b7f4552433732313a20617070726f76656420717565727920666f72206e6f6e657860008201527f697374656e7420746f6b656e0000000000000000000000000000000000000000602082015250565b7f4f6e6c79206f776e6572206f722061646d696e2063616e20736574207072696360008201527f6573000000000000000000000000000000000000000000000000000000000000602082015250565b7f4e6f206d6f72652070656e6775696e7321000000000000000000000000000000600082015250565b7f4d696e74696e672064697361626c656400000000000000000000000000000000600082015250565b7f4552433732313a207472616e73666572206f6620746f6b656e2074686174206960008201527f73206e6f74206f776e0000000000000000000000000000000000000000000000602082015250565b7f4552433732314d657461646174613a2055524920717565727920666f72206e6f60008201527f6e6578697374656e7420746f6b656e0000000000000000000000000000000000602082015250565b7f41646472657373206e6f742077686974656c6973746564000000000000000000600082015250565b7f50726573616c65206d757374206265206c69766520696e206f7264657220746f60008201527f207475726e206f6e207075626c69632073616c65000000000000000000000000602082015250565b7f4552433732313a20617070726f76616c20746f2063757272656e74206f776e6560008201527f7200000000000000000000000000000000000000000000000000000000000000602082015250565b7f4552433732313a207472616e736665722063616c6c6572206973206e6f74206f60008201527f776e6572206e6f7220617070726f766564000000000000000000000000000000602082015250565b7f4f6e6c79206f776e6572206f722061646d696e2063616e2061646420746f207760008201527f686974656c697374000000000000000000000000000000000000000000000000602082015250565b7f4f6e6c79206f776e6572206f722061646d696e2063616e206368616e6765207360008201527f616c652073746174650000000000000000000000000000000000000000000000602082015250565b7f5265656e7472616e637947756172643a207265656e7472616e742063616c6c00600082015250565b6150ae816144ca565b81146150b957600080fd5b50565b6150c5816144dc565b81146150d057600080fd5b50565b6150dc816144e8565b81146150e757600080fd5b50565b6150f381614534565b81146150fe57600080fd5b5056fea2646970667358221220e6ce9086287ab1ade33c348a2dcb4dc5ee1588c69b551df0eeaa807369aa1d0f64736f6c63430008040033",
  "linkReferences": {},
  "deployedLinkReferences": {}
}